:020000040800F2
:100000000040012095630008E1140008E514000891
:10001000F5140008F7140008F914000800000000A7
:100020000000000000000000000000002161000846
:10003000FB14000800000000C16100080562000810
:10004000E5630008E5630008E5630008E563000870
:10005000E5630008E5630008E5630008E563000860
:10006000E5630008E5630008E5630008E563000850
:10007000FD140008E56300080D150008E56300089D
:10008000E5630008E5630008E5630008E563000830
:10009000E5630008E5630008E5630008E563000820
:1000A000E5630008E5630008E5630008E563000810
:1000B000E5630008E5630008E5630008E563000800
:1000C000E5630008E5630008E5630008E5630008F0
:1000D000E5630008E5630008E56300081D150008F6
:1000E000E5630008E5630008E5630008E5630008D0
:1000F000E5630008E5630008E5630008E5630008C0
:10010000E5630008E56300082D150008E5630008B5
:10011000E5630008E5630008E5630008E56300089F
:10012000E5630008E5630008E56300083D15000885
:10013000E56300080000000000000000E56300081F
:10014000E5630008E5630008E5630008E56300086F
:10015000E5630008E5630008E5630008E56300085F
:10016000E5630008E5630008E5630008E56300084F
:10017000E5630008E56300080000000000000000DF
:04018000E56300082B
:1001900010B5054C237833B9044B13B10448AFF3C1
:1001A00000800123237010BDF40100200000000036
:1001B00004AA000808B5034B1BB103490348AFF379
:1001C000008008BD00000000F801002004AA00081B
:1001D00010F8012B11F8013B012A28BF9A42F7D0F1
:1001E000D01A7047034613F8012B002AFBD1181AC6
:1001F0000138704781F0004102E000BF83F0004306
:1002000030B54FEA41044FEA430594EA050F08BFB1
:1002100090EA020F1FBF54EA000C55EA020C7FEA75
:10022000645C7FEA655C00F0E2804FEA5454D4EBF2
:100230005555B8BF6D420CDD2C4480EA020281EABC
:10024000030382EA000083EA010180EA020281EAF4
:100250000303362D88BF30BD11F0004F4FEA013146
:100260004FF4801C4CEA113102D0404261EB410155
:1002700013F0004F4FEA03334CEA133302D05242DB
:1002800063EB430394EA050F00F0A780A4F1010497
:10029000D5F1200E0DDB02FA0EFC22FA05F28018D1
:1002A00041F1000103FA0EF2801843FA05F35941B7
:1002B0000EE0A5F120050EF1200E012A03FA0EFC36
:1002C00028BF4CF0020C43FA05F3C01851EBE37160
:1002D00001F0004507D54FF0000EDCF1000C7EEB7D
:1002E00000006EEB0101B1F5801F1BD3B1F5001FBB
:1002F0000CD349085FEA30004FEA3C0C04F10104DA
:100300004FEA445212F5800F80F09A80BCF1004F02
:1003100008BF5FEA500C50F1000041EB045141EA84
:10032000050130BD5FEA4C0C404141EB0101013C4D
:1003300028BFB1F5801FE9D291F0000F04BF01463C
:100340000020B1FA81F308BF2033A3F10B03B3F10E
:1003500020020CDA0C3208DD02F1140CC2F10C029E
:1003600001FA0CF021FA02F10CE002F11402D8BFFC
:10037000C2F1200C01FA02F120FA0CFCDCBF41EAC8
:100380000C019040E41AA2BF01EB0451294330BD97
:100390006FEA04041F3C1CDA0C340EDC04F1140474
:1003A000C4F1200220FA04F001FA02F340EA03004B
:1003B00021FA04F345EA030130BDC4F10C04C4F191
:1003C000200220FA02F001FA04F340EA0300294671
:1003D00030BD21FA04F0294630BD94F0000F83F4BB
:1003E000801306BF81F480110134013D4EE77FEA9E
:1003F000645C18BF7FEA655C29D094EA050F08BFEA
:1004000090EA020F05D054EA000C04BF19461046CA
:1004100030BD91EA030F1EBF0021002030BD5FEA0E
:10042000545C05D14000494128BF41F0004130BD36
:1004300014F580043CBF01F5801130BD01F000458A
:1004400045F0FE4141F470014FF0000030BD7FEAFD
:10045000645C1ABF194610467FEA655C1CBF0B46F8
:10046000024650EA013406BF52EA033591EA030F0F
:1004700041F4002130BD00BF90F0000F04BF002107
:10048000704730B54FF4806404F132044FF000053A
:100490004FF0000150E700BF90F0000F04BF0021B3
:1004A000704730B54FF4806404F1320410F0004519
:1004B00048BF40424FF000013EE700BF42004FEA14
:1004C000E2014FEA31014FEA02701FBF12F07F4391
:1004D00093F07F4F81F06051704732F07F4208BF48
:1004E000704793F07F4F04BF41F40021704730B54F
:1004F0004FF4607401F0004521F000411CE700BF9B
:1005000050EA010208BF704730B54FF000050AE01D
:1005100050EA010208BF704730B511F0004502D51E
:10052000404261EB41014FF4806404F132045FEA20
:10053000915C3FF4D8AE4FF003025FEADC0C18BFC9
:1005400003325FEADC0C18BF033202EBDC02C2F1BB
:10055000200300FA03FC20FA02F001FA03FE40EA4D
:100560000E0021FA02F11444BDE600BF70B54FF051
:10057000FF0C4CF4E06C1CEA11541DBF1CEA13552F
:1005800094EA0C0F95EA0C0F00F0DEF82C4481EA97
:10059000030621EA4C5123EA4C5350EA013518BFB7
:1005A00052EA033541F4801143F4801338D0A0FBA4
:1005B00002CE4FF00005E1FB02E506F00042E0FB51
:1005C00003E54FF00006E1FB03569CF0000F18BF57
:1005D0004EF0010EA4F1FF04B6F5007F64F54074FF
:1005E00004D25FEA4E0E6D4146EB060642EAC62192
:1005F00041EA55514FEAC52040EA5E504FEACE2EFF
:10060000B4F1FD0C88BFBCF5E06F1ED8BEF1004F01
:1006100008BF5FEA500E50F1000041EB045170BD7D
:1006200006F0004646EA010140EA020081EA0301C1
:10063000B4EB5C04C2BFD4EB0C0541EA045170BDBD
:1006400041F480114FF0000E013C00F3AB8014F137
:10065000360FDEBF002001F0004170BDC4F1000480
:10066000203C35DA0C341BDC04F11404C4F1200501
:1006700000FA05F320FA04F001FA05F240EA02005C
:1006800001F0004221F0004110EBD37021FA04F692
:1006900042EB06015EEA430E08BF20EAD37070BD4C
:1006A000C4F10C04C4F1200500FA04F320FA05F0AB
:1006B00001FA04F240EA020001F0004110EBD370AD
:1006C00041F100015EEA430E08BF20EAD37070BD1D
:1006D000C4F1200500FA05F24EEA020E20FA04F3F6
:1006E00001FA05F243EA020321FA04F001F00041A5
:1006F00021FA04F220EA020000EBD3705EEA430E16
:1007000008BF20EAD37070BD94F0000F0FD101F044
:100710000046400041EB010111F4801F08BF013C7D
:10072000F7D041EA060195F0000F18BF704703F0BB
:100730000046520043EB030313F4801F08BF013D42
:10074000F7D043EA0603704794EA0C0F0CEA1355FE
:1007500018BF95EA0C0F0CD050EA410618BF52EAB8
:100760004306D1D181EA030101F000414FF00000BE
:1007700070BD50EA410606BF1046194652EA4306CC
:1007800019D094EA0C0F02D150EA013613D195EA40
:100790000C0F05D152EA03361CBF104619460AD188
:1007A00081EA030101F0004141F0FE4141F4700192
:1007B0004FF0000070BD41F0FE4141F4780170BD82
:1007C00070B54FF0FF0C4CF4E06C1CEA11541DBFE7
:1007D0001CEA135594EA0C0F95EA0C0F00F0A7F8E9
:1007E000A4EB050481EA030E52EA03354FEA013116
:1007F00000F088804FEA03334FF0805545EA131329
:1008000043EA12634FEA022245EA111545EA1065F0
:100810004FEA00260EF000419D4208BF964244F187
:10082000FD0404F5407402D25B084FEA3202B61AA6
:1008300065EB03055B084FEA32024FF480104FF47A
:10084000002CB6EB020E75EB030E22BFB61A7546EE
:1008500040EA0C005B084FEA3202B6EB020E75EB81
:10086000030E22BFB61A754640EA5C005B084FEAE9
:100870003202B6EB020E75EB030E22BFB61A7546B6
:1008800040EA9C005B084FEA3202B6EB020E75EBC1
:10089000030E22BFB61A754640EADC0055EA060E82
:1008A00018D04FEA051545EA16754FEA06164FEAC5
:1008B000C30343EA52734FEAC2025FEA1C1CC0D171
:1008C00011F4801F0BD141EA00014FF000004FF0FE
:1008D000004CB6E711F4801F04BF01430020B4F1BF
:1008E000FD0C88BFBCF5E06F3FF6AFAEB5EB030C77
:1008F00004BFB6EB020C5FEA500C50F1000041EB74
:10090000045170BD0EF0004E4EEA113114EB5C0440
:10091000C2BFD4EB0C0541EA045170BD41F4801113
:100920004FF0000E013C90E645EA060E8DE60CEA1B
:10093000135594EA0C0F08BF95EA0C0F3FF43BAF38
:1009400094EA0C0F0AD150EA01347FF434AF95EAEF
:100950000C0F7FF425AF104619462CE795EA0C0FD3
:1009600006D152EA03353FF4FDAE1046194622E7A0
:1009700050EA410618BF52EA43067FF4C5AE50EA7A
:1009800041047FF40DAF52EA43057FF4EBAE12E76A
:100990004FF0FF3C06E000BF4FF0010C02E000BF4B
:1009A0004FF0010C4DF804CD4FEA410C7FEA6C5C2E
:1009B0004FEA430C18BF7FEA6C5C1BD001B050EAD1
:1009C000410C0CBF52EA430C91EA030F02BF90EABC
:1009D000020F0020704710F1000F91EA030F58BF7B
:1009E000994208BF90422CBFD8176FEAE37040F0DD
:1009F000010070474FEA410C7FEA6C5C02D150EA7B
:100A0000013C07D14FEA430C7FEA6C5CD6D152EA35
:100A1000033CD3D05DF8040B704700BF84461046FA
:100A200062468C461946634600E000BF01B5FFF7F9
:100A3000B7FF002848BF10F1000F01BD4DF808EDC9
:100A4000FFF7F4FF0CBF012000205DF808FB00BF9A
:100A50004DF808EDFFF7EAFF34BF012000205DF8F4
:100A600008FB00BF4DF808EDFFF7E0FF94BF012041
:100A700000205DF808FB00BF4DF808EDFFF7CEFF42
:100A800094BF012000205DF808FB00BF4DF808ED81
:100A9000FFF7C4FF34BF012000205DF808FB00BF52
:100AA0004FEA410C7FEA6C5C02D150EA013C0AD16A
:100AB0004FEA430C7FEA6C5C02D152EA033C02D15C
:100AC0004FF0000070474FF0010070474FEA4102BD
:100AD00012F5001215D211D56FF47873B3EB625290
:100AE00012D94FEAC12343F0004343EA505311F0B7
:100AF000004F23FA02F018BF404270474FF0000049
:100B0000704750EA013005D111F0004008BF6FF086
:100B1000004070474FF00000704700BF4A0011D2FC
:100B200012F5001211D20DD56FF47873B3EB625247
:100B30000ED44FEAC12343F0004343EA505323FA53
:100B400002F070474FF00000704750EA013002D1C8
:100B50004FF0FF3070474FF0000070474FEA4102FE
:100B6000B2F1E04324BFB3F5001CDCF1FE5C0DD90B
:100B700001F0004C4FEAC0024CEA5070B2F1004F55
:100B800040EB830008BF20F00100704711F0804F58
:100B900021D113F13872BCBF01F00040704741F41D
:100BA00080114FEA5252C2F11802C2F1200C10FA21
:100BB0000CF320FA02F018BF40F001004FEAC12305
:100BC0004FEAD32303FA0CFC40EA0C0023FA02F3A9
:100BD0004FEA4303CCE77FEA625307D150EA01337F
:100BE0001EBF4FF0FE4040F44000704701F000404F
:100BF00040F0FE4040F40000704700BF53B94AB9CE
:100C0000002908BF00281CBF4FF0FF314FF0FF3014
:100C100000F0AEB9ADF1080C6DE904CE00F03EF87D
:100C2000DDF804E0DDE9022304B0704738B505467D
:100C30000C460022002328462146FFF709FF28B969
:100C400028462146BDE8384000F00AB8284604F19D
:100C5000004100F005F8404261EB410138BD00BFA2
:100C6000D0B500220B4B06460F46FFF77FFCFFF77F
:100C700055FF0446FFF700FC0022074BFFF776FC08
:100C800002460B4630463946FFF7B8FAFFF746FFF3
:100C90002146D0BD0000F03D0000F0412DE9F047B5
:100CA000089E0D4604468846002B4DD18A42944644
:100CB00068D9B2FA82F252B101FA02F3C2F120010C
:100CC00020FA01F10CFA02FC41EA030894404FEAD1
:100CD0001C41B8FBF1F71FFA8CFE01FB178807FBDC
:100CE0000EF0230C43EA084398420AD91CEB030395
:100CF00007F1FF3580F01E81984240F21B81023FD0
:100D000063441B1AB3FBF1F001FB103300FB0EFE32
:100D1000A4B244EA0344A6450AD91CEB040400F13A
:100D2000FF3380F00981A64540F206816444023811
:100D30000021A4EB0E0440EA07401EB10023D4407A
:100D4000C6E90043BDE8F0878B4208D9002E00F0C9
:100D5000EE800021C6E900050846BDE8F087B3FA39
:100D600083F100294AD1AB4202D3824200F2FC80D7
:100D7000841A65EB030301209846002EE2D0C6E9F1
:100D80000048DFE702B9FFDEB2FA82F2002A40F043
:100D90009180A1EB0C0001214FEA1C471FFA8CFE49
:100DA000B0FBF7F307FB1300250C45EA00450EFBEB
:100DB00003F0A84208D91CEB050503F1FF3802D265
:100DC000A84200F2CE8043462D1AB5FBF7F007FB90
:100DD00010550EFB00FEA4B244EA0544A64508D90E
:100DE0001CEB040400F1FF3502D2A64500F2B680E8
:100DF0002846A4EB0E0440EA03409EE7C1F1200719
:100E00008B4022FA07FC4CEA030C25FA07FA4FEA5A
:100E10001C49BAFBF9F820FA07F309FB18AA8D4020
:100E20001FFA8CFE1D4300FA01F308FB0EF02C0C98
:100E300044EA0A44A04202FA01F20BD91CEB040472
:100E400008F1FF3A80F08880A04240F28580A8F146
:100E500002086444241AB4FBF9F009FB104400FBB7
:100E60000EFEADB245EA0444A64508D91CEB0404C5
:100E700000F1FF356CD2A6456AD90238644440EAD5
:100E80000840A0FB0295A4EB0E04AC42C846AE4657
:100E900056D353D0002E69D0B3EB080264EB0E0496
:100EA00022FA01F304FA07F71F43CC40C6E90074A5
:100EB000002147E70CFA02FCC2F1200125FA01F3F8
:100EC0004FEA1C4720FA01F195400D43B3FBF7F1BF
:100ED00007FB11331FFA8CFE280C40EA034001FB8C
:100EE0000EF3834204FA02F408D91CEB000001F16E
:100EF000FF382FD283422DD902396044C01AB0FB8B
:100F0000F7F307FB1300ADB245EA004503FB0EF013
:100F1000A84208D91CEB050503F1FF3816D2A842F8
:100F200014D9023B6544281A43EA014138E73146A7
:100F3000304607E72F46E4E61846F9E64B45A9D2C6
:100F4000B9EB020865EB0C0E0138A3E74346EAE76C
:100F5000284694E74146D1E7D0467BE7644402380F
:100F600047E7023B65442FE7084606E73146E9E6D6
:100F7000704700BFFEE700002DE9F0418AB0002471
:100F8000059406940794089409940194414B1A6BB4
:100F900042F080021A631A6B02F080020192019AF9
:100FA00002941A6B42F004021A631A6B02F00402F4
:100FB0000292029A03941A6B42F001021A631A6BAE
:100FC00002F001020392039A04941A6B42F00202A7
:100FD0001A631B6B03F002030493049BDFF8B880D1
:100FE000224642F22001404601F08AFB2B4F224666
:100FF0004FF44071384601F083FB294D22464FF4EF
:101000000041284601F07CFBFF23059306940794DA
:1010100005A9384601F070FAF023059303230693DF
:10102000079405A9284601F067FA40F201330593B9
:101030000694079405A9404601F05EFA42F22003A7
:101040000593012606960794089405A9404601F0E9
:1010500053FA4FF44073059306960794089405A934
:10106000384601F049FA4FF47063059306940794EB
:1010700005A9284601F040FA4FF40043059306966F
:101080000794089405A9284601F036FA0AB0BDE88D
:10109000F08100BF00380240000402400008024016
:1010A0000000024010B582B000240094164B1A6B69
:1010B00042F400121A631A6B02F400120092009AB2
:1010C00001941A6B42F480021A631B6B03F48003D1
:1010D0000193019B224605210C2001F0C7F90C2049
:1010E00001F0FCF9224605210E2001F0BFF90E2087
:1010F00001F0F4F9224605213B2001F0B7F93B202D
:1011000001F0ECF902B010BD0038024000B591B01A
:1011100004F000FD0F9008E002A804F0C1F804F00C
:1011200021FA0A210FA804F003FE0C4AB2F840305D
:10113000B2F8461001910093B2F84230B2F8442060
:10114000074902A805F086FF04F0FEF8044602A84D
:10115000FFF748F88442DFD8E1E700BFCC02002067
:1011600020AA000800B583B004F0D4FC0190064822
:1011700000F14802016D403004F044F9022101A859
:1011800004F0D6FDF3E700BFCC02002010B51446F2
:10119000642392B2024802F076FC204610BD00BFE4
:1011A000CC12002008B50268034B9A4200D008BD5B
:1011B00000F0DAFDFBE700BF000C004072B6FEE76E
:1011C00008B50A480A4B03600A4B4360002383605A
:1011D000C3604FF48042026143618361C361036273
:1011E00001F0F8FC00B908BDFFF7E8FF201200206D
:1011F00000540040801A060008B50D480D4B0360EE
:101200004FF48273436000238360C36003614361D2
:101210004FF4007282611022C261036243628362F2
:101220000A23C36201F054FE00B908BDFFF7C6FFF0
:1012300074120020003C004008B50A480A4B0360C5
:101240004FF4E133436000238360C36003610C22E9
:1012500042618361C36102F0E7FB00B908BDFFF79B
:10126000ADFF00BFCC1200200048004000B585B0A3
:10127000002300930193029303932448244A0260BD
:101280004360836001220261027680F82030C362ED
:1012900020498162C3600423C36180F83020426129
:1012A00000F05AFB40BB0423009301230193072362
:1012B00002936946154800F071FCF8B905230093C4
:1012C000022301936946114800F068FCC0B9062367
:1012D00000930323019369460C4800F05FFC88B932
:1012E00007230093042301936946084800F056FC45
:1012F00050B905B05DF804FBFFF760FFFFF75EFF34
:10130000FFF75CFFFFF75AFFFFF758FFB810002008
:10131000002101400100000F00B593B030220021F0
:1013200006A805F0CDF800230193029303930493DC
:10133000059301230693079302230C934FF4800334
:101340000D9304230E93C0220F9206221092119344
:1013500006A800F031FD90B90F23019302210291FC
:10136000002303934FF4A05304934FF48053059349
:1013700001A800F063FF20B913B05DF804FBFFF78C
:101380001DFFFFF71BFF000080B588B000F0D2FC06
:10139000FFF7C2FFFFF7F0FDFFF712FFFFF72CFF8B
:1013A000FFF780FEFFF748FFFFF760FFDFF8E0A0E0
:1013B00004225146374800F0FBFA374D4FF0010840
:1013C00085F80080354BAB60354B6B60354EC5F80A
:1013D000086D284603F058FD334C256284F81C80C4
:1013E0004FF48077A7804FF40079A4F806902F4B34
:1013F00023602661002666612D4BE3602D4BA360C0
:10140000A5612D4B6362C4F828A0EC4604F10C0ED4
:10141000BEE80F00ACE80F009EE80F008CE80F005C
:1014200094E80E00204603F09BFD40F60B03A4F861
:10143000483040F68503A4F84A3040F22113A4F85E
:101440004C3040F2A973A4F84E301C4B1B6801933A
:101450000224009433464A4619491A4804F0E4FA33
:10146000194B1B680193009433463A4617491848B4
:1014700004F0DAFA174B1B680193CDF8008033466D
:101480003A461549154804F0CFFA04F001FBFEE78F
:1014900010020020B8100020AC03002060110020D2
:1014A000CC120020811D0008CC0200200008024060
:1014B0008D1D00087412002040020020A8030020A7
:1014C0003CAA00080D1100081802002044AA0008D8
:1014D000651100081C02002050AA0008750F0008C2
:1014E000FEE7000008B5024805F09CFDFEE700BFDE
:1014F00058AA0008FEE7FEE7FEE7704708B5024875
:1015000001F07AFA08BD00BF6011002008B502485A
:1015100001F072FA08BD00BFC011002008B50248F2
:1015200002F0CCFB08BD00BFCC12002008B5024879
:1015300002F02EF808BD00BF8454002008B5024810
:1015400001F05AFA08BD00BF0011002000B583B0B9
:10155000002200920D4B596C41F480415964596C42
:1015600001F48041009100990192196C41F0805181
:1015700019641B6C03F080530193019B0F216FF0E2
:10158000010000F073FF03B05DF804FB0038024077
:1015900030B589B000230393049305930693079312
:1015A0000268224B9A4201D009B030BD04460025A2
:1015B00001951F4B5A6C42F400725A645A6C02F443
:1015C00000720192019A02951A6B42F001021A63AD
:1015D0001B6B03F001030293029BF023039303238D
:1015E000049303A9134800F087FF1348134B0360CB
:1015F0004FF0007343608560C5604FF48063036102
:101600004FF4006343614FF4005383614FF48073E0
:10161000C3610562456201F0F7F818B9064BA36390
:101620009C63C1E7FFF7CAFDF8E700BF0021014056
:1016300000380240000002400011002058640240BF
:1016400030B589B000230393049305930693079361
:101650000268144B9A4201D009B030BD00250195B3
:10166000114C236B43F002032363236B03F002034B
:101670000193019BC0230393122304930323069336
:101680000423079303A9094800F036FF0295236C51
:1016900043F400132364236C03F400130293029BAE
:1016A000DAE700BF00540040003802400004024066
:1016B00000B589B000230393049305930693079321
:1016C0000268154B9A4202D009B05DF804FB002174
:1016D000019103F5FE331A6C42F400421A641A6C4D
:1016E00002F400420192019A02911A6B42F0040244
:1016F0001A631B6B03F004030293029B4FF4E05345
:10170000039302230493032306930623079303A959
:10171000024800F0F1FED7E7003C0040000802401C
:1017200030B589B000230393049305930693079380
:101730000268334B9A4201D009B030BD04460025FF
:10174000019503F5F8331A6C42F480221A641A6C7E
:1017500002F480220192019A02951A6B42F0020271
:101760001A631B6B03F002030293029B4FF4406366
:10177000039302230493032306930723079303A9E8
:10178000204800F0B9FE2048204B03604FF0006372
:1017900043608560C5604FF4806303614561856186
:1017A000C5610562456201F02FF818BB164BA363B3
:1017B0009C631748174B03604FF00063436040235E
:1017C00083600023C3604FF48062026143618361E0
:1017D000C3610362436201F017F870B90C4B636395
:1017E0009C6300220521272000F040FE272000F006
:1017F00075FEA1E7FFF7E2FCD8E7FFF7DFFCEDE7B6
:1018000000480040000402406011002028600240AF
:10181000C0110020586002404D4B5A6822F44032FB
:101820005A605A6841680A435A600268536823F450
:101830008073536002685368016943EA012353606F
:101840000268536823F040735360026853688168EC
:101850000B4353600268936823F40063936002684B
:101860009368C1680B439360826A3A4B9A425DD099
:101870000268936823F07063936002689368816ADA
:101880000B4393600268936823F0405393600268AF
:101890009368C16A0B4393600268936823F0020364
:1018A000936002689368017E43EA4103936090F875
:1018B0002030002B45D00268536843F40063536026
:1018C0000268536823F460435360436A013B4FF45A
:1018D000604292FAA2F2B2FA82F2934001684A6838
:1018E00013434B600268D36A23F47003D362016828
:1018F000CB6AC269013A43EA0253CB620268936839
:1019000023F4007393600268936890F8301043EA00
:10191000412393600268936823F4806393600268B4
:101920009368416943EA8123936070470268936832
:1019300023F0706393600268936823F040539360D0
:10194000AAE70268536823F400635360CAE700BF44
:10195000002301400100000F38B310B50446036CAA
:1019600043B1236C13F0100F0BD00120002384F837
:101970003C3010BDFFF70CFE0023636484F83C305C
:10198000EFE7236C23F4885323F0020343F00203B0
:1019900023642046FFF740FF00206064236C23F09F
:1019A000030343F001032364E0E7012070470000D4
:1019B00010B582B013460022019290F83C20012A13
:1019C00000F08B800446012280F83C200268906879
:1019D00010F0010F13D1906840F001009060424A6E
:1019E0001068424AA2FB0020800C00EB40000190EE
:1019F00002E001980138019001980028F9D122688D
:101A0000906810F0010F5DD0206C20F4E06020F0B1
:101A1000010040F480702064526812F4806F05D099
:101A2000226C22F4405242F480522264226C12F45E
:101A3000805F34D0626C22F006026264002284F877
:101A40003C20A26B2A48D063A26B2A481064A26B88
:101A50002948D06422686FF0220010602068426834
:101A600042F0806242602068826842F48072826044
:101A700020680A4600F14C01A06B00F02BFF1F4BC1
:101A80005B6813F01F0F0DD123689A6812F0405F56
:101A900025D19A6842F080429A6000201BE0002223
:101AA0006264CBE72368164A934201D0002012E01B
:101AB0009A6812F0405F14D19A6842F080429A60AE
:101AC000002008E0236C43F010032364636C43F0B0
:101AD00001036364002002B010BD0220FBE7002078
:101AE000F9E70020F7E700BF0800002083DE1B4372
:101AF0002B1B0008091B0008151B000800230140D0
:101B0000002001407047704708B5806BFFF7FBFF6E
:101B100008BD704708B5806B40230364436C43F0F5
:101B200004034364FFF7F5FF08BD08B50346806B67
:101B3000026C12F0500F25D1036C43F40073036460
:101B400003689A6812F0405F19D1027EBAB9DA6A66
:101B500012F4700F03D09A6812F4806F0FD15A6894
:101B600022F020025A60036C23F480730364036C38
:101B700013F4805F03D1036C43F001030364FFF7A8
:101B8000C1FF08BD026C12F0100F04D1826BD26C41
:101B900018469047F5E7FFF7BCFFF2E730B482B094
:101BA0000023019390F83C30012B00F0BB8001230F
:101BB00080F83C300B68092B41D90468E2689BB27D
:101BC00003EB43031E3B4FF0070C0CFA03F322EA2E
:101BD0000303E3600468E2680B8803EB43031E3BE6
:101BE0008D6805FA03F31343E3604B68062B3DD879
:101BF0000468626B03EB8303053B4FF01F0C0CFA88
:101C000003F322EA030363630468626B4B6803EB2C
:101C10008303053BB1F800C00CFA03F3134363637D
:101C20000268414B9A4251D002683F4B9A4256D0CB
:101C3000002380F83C30184602B030BC704704687E
:101C400022699BB203EB43034FF0070C0CFA03F33A
:101C500022EA03032361046822690B8803EB430330
:101C60008D6805FA03F313432361BEE70C2B16D8E6
:101C700005682A6B03EB8303233B1F2404FA03F359
:101C800022EA03032B6305682A6B4B6803EB83038B
:101C9000233B0C8804FA03F313432B63C0E7056866
:101CA000EA6A03EB8303413B1F2404FA03F322EAAD
:101CB0000303EB620568EA6A4B6803EB8303413B6D
:101CC0000C8804FA03F31343EB62A9E70B68122BA9
:101CD000AAD1164A536843F480035360A4E70B6803
:101CE000103B012BA4D8114A536843F400035360FE
:101CF0000B68102B9CD10E4B1B6802F1467202F54B
:101D00002E3202F28332A2FB03239B0C03EB8303EC
:101D10005B00019302E0019B013B0193019B002BBF
:101D2000F9D185E7022087E7002001400023014028
:101D30000800002008B50B4B1A6842F400721A60C4
:101D40001A6842F480621A601A6842F480721A605B
:101D5000032000F079FB0F2004F0DEFAFFF7F6FB1A
:101D6000002008BD003C0240034A1168034B1B7869
:101D70000B441360704700BF1013002000000020C8
:101D8000014B1868704700BF1013002030B583B0B6
:101D90000190FFF7F5FF0546019CB4F1FF3F02D02B
:101DA000044B1B781C44FFF7EBFF401BA042FAD307
:101DB00003B030BD00000020002800F0BB8170B5EA
:101DC00082B00446036813F0010F2ED0934B9B683A
:101DD00003F00C03042B1FD0904B9B6803F00C0303
:101DE000082B14D022798D4B9A706368002B40D059
:101DF000FFF7C6FF0546894B1B6813F4003F14D15B
:101E0000FFF7BEFF401B6428F5D9032099E1834BFF
:101E10005B6813F4800FE5D0804B1B6813F4003F20
:101E200003D06368002B00F08781236813F0020F52
:101E30004AD07A4B9B6813F00C0F2ED0774B9B68DF
:101E400003F00C03082B23D0E368002B64D0744B01
:101E500001221A60FFF794FF0546704B1B6813F0D0
:101E6000020F4AD1FFF78CFF401B0228F5D903204F
:101E700067E1FFF785FF0546684B1B6813F4003FD9
:101E8000D3D0FFF77DFF401B6428F5D9032058E12C
:101E9000624B5B6813F4800FD6D1604B1B6813F064
:101EA000020F03D0E368012B40F048815B480368D0
:101EB00023F0F8032169F82292FAA2F2B2FA82F230
:101EC00001FA02F213430360236813F0080F48D0AD
:101ED00063699BB3524B0122C3F8802EFFF750FF7A
:101EE00005464E4B5B6F13F0020F3AD1FFF748FFE8
:101EF000401B0228F5D9032023E14848036823F05A
:101F0000F8032169F82292FAA2F2B2FA82F201FAF7
:101F100002F213430360D7E7414B00221A60FFF738
:101F20002FFF05463D4B1B6813F0020FCCD0FFF787
:101F300027FF401B0228F5D9032002E1384B00227D
:101F4000C3F8802EFFF71CFF0546344B5B6F13F080
:101F5000020F06D0FFF714FF401B0228F5D903201B
:101F6000EFE0236813F0040F5FD02C4B1B6C13F0D1
:101F7000805F2CD100230193284B1A6C42F08052D1
:101F80001A641B6C03F080530193019B0125254BC0
:101F90001A6842F480721A601B6813F4807F18D0AC
:101FA000227A1E4B83F87020A36833B3FFF7E8FE54
:101FB00006461A4B1B6F13F0020F35D1FFF7E0FEF8
:101FC000801B41F288339842F3D90320B9E0002501
:101FD000DDE7144A136843F480731360FFF7D0FE03
:101FE0000646104B1B6813F4807FD9D1FFF7C8FE5B
:101FF000801B0228F5D90320A3E0FFF7C1FE0646A7
:10200000064B1B6F13F0020F0ED0FFF7B9FE801BBB
:1020100041F288339842F3D9032092E0003802401D
:102020000000474200700040EDB9A369002B00F0AA
:1020300087804B4A926802F00C02082A5BD0022B80
:1020400017D0484B00221A66FFF79AFE0446444B0D
:102050001B6813F0007F4CD0FFF792FE001B642832
:10206000F5D903206DE03E4A136C23F080531364CE
:10207000DBE73C4B00221A66FFF782FE0546384B31
:102080001B6813F0007F06D0FFF77AFE401B642820
:10209000F5D9032055E03248426822F0746222F4F8
:1020A0005F3222F47F7222F00302E369216A0B435C
:1020B000616A43EA8113E16A43EA0163A16A49085C
:1020C000013943EA014313434360264B01221A6658
:1020D000FFF756FE0446224B1B6813F0007F06D123
:1020E000FFF74EFE001B6428F5D9032029E00020ED
:1020F00027E0002025E0012B25D0194B5B6803F475
:102100008001E269914220D103F03F02216A8A42B4
:102110001DD1C3F38812616A8A421AD103F4403296
:10212000A16A8A4217D103F07063E26A934214D124
:10213000002006E001207047012002E0012000E0BD
:10214000002002B070BD0120FBE70120F9E701206B
:10215000F7E70120F5E70120F3E70120F1E700BFF1
:10216000003802400000474208B5314B9B6803F03D
:102170000C03042B57D0082B57D12D4B5A6802F073
:102180003F025B6813F4800F2AD0294B5968C1F3D2
:10219000881C4FEA4C11B1EB0C006EEB0E0E4FEAAF
:1021A0008E1343EA90638101091A63EB0E03DB008F
:1021B00043EA5173C90011EB0C0C43F100035902BF
:1021C00000234FEA4C2041EADC51FEF717FD184B83
:1021D0005B68C3F3014301335B00B0FBF3F025E020
:1021E000134B5968C1F3881C4FEA4C11B1EB0C003A
:1021F0006EEB0E0E4FEA8E1343EA90638101091ACB
:1022000063EB0E03DB0043EA5173C90011EB0C0CC6
:1022100043F10003990200234FEA8C2041EA9C51CC
:10222000FEF7ECFCD3E7034800E0034808BD00BF1D
:102230000038024000127A000024F400002800F068
:10224000A08070B50D460446524B1B6803F00F0387
:102250008B4208D2CBB24F4A1370136803F00F03BE
:102260008B4240F09080236813F0020F17D013F0D8
:10227000040F04D0484A936843F4E0539360236802
:1022800013F0080F04D0444A936843F4604393600A
:10229000414A936823F0F003A1680B4393602368DD
:1022A00013F0010F31D06368012B20D0022B25D011
:1022B000394A126812F0020F67D037498A6822F053
:1022C000030213438B60FFF75BFD0646324B9B68AE
:1022D00003F00C036268B3EB820F16D0FFF750FDDA
:1022E000801B41F288339842F0D9032048E02A4A03
:1022F000126812F4003FE0D1012041E0264A126842
:1023000012F0007FD9D101203AE0224B1B6803F084
:102310000F03AB4207D9EAB21E4B1A701B6803F0D9
:102320000F03AB4233D1236813F0040F06D01A4ACF
:10233000936823F4E053E1680B439360236813F040
:10234000080F07D0144A936823F46043216943EAD5
:10235000C1039360FFF708FF0F4B9B6803F0F00386
:10236000F02292FAA2F2B2FA82F2D3400B4AD35C84
:10237000D8400B4B18600B4B186803F0CDFF0020C2
:1023800070BD012070470120FAE70120F8E7012025
:10239000F6E700BF003C02400038024070AA000887
:1023A0000800002004000020014B1868704700BF9F
:1023B0000800002008B5FFF7F7FF074B9B6803F400
:1023C000E0534FF4E05292FAA2F2B2FA82F2D34012
:1023D000024AD35CD84008BD0038024080AA0008F9
:1023E00008B5FFF7E1FF074B9B6803F460434FF428
:1023F000604292FAA2F2B2FA82F2D340024AD35C6D
:10240000D84008BD0038024080AA00080F230360AE
:102410000B4B9A6802F0030242609A6802F0F002E5
:1024200082609A6802F4E052C2609B68DB0803F4A1
:10243000E0530361034B1B6803F00F030B6070470D
:1024400000380240003C0240074AD36823F4E063AE
:102450001B041B0C000200F4E060034343F0BF6365
:1024600043F40033D360704700ED00E000B5194B32
:10247000DB68C3F30223C3F1070CBCF1040F28BFD0
:102480004FF0040C03F1040EBEF1060F18D9033B04
:102490004FF0FF3E0EFA0CFC21EA0C0199400EFAB7
:1024A00003F322EA0303194300280BDB0901C9B235
:1024B00000F1604000F5614080F800135DF804FB16
:1024C0000023E5E700F00F000901C9B2024B1954DF
:1024D000F4E700BF00ED00E014ED00E0002807DBAA
:1024E00000F01F02400901239340024A42F82030C5
:1024F000704700BF00E100E070B582B0002365E0E6
:1025000085685E000324B44025EA0405CC68B44025
:102510002C438460446824EA0C0C4C68C4F3001417
:102520009C4044EA0C04446062E0DD08083550F841
:10253000256003F007044FEA840C0F2404FA0CF41E
:1025400026EA040E0C6904FA0CF444EA0E0440F87E
:10255000254064E0082400E0002404FA0EF42C4333
:102560000CF1020C624D45F82C40624C2568D443B6
:1025700025EA0206D1F804C01CF4803F01D042EAEB
:1025800005065C4D2E606D6804EA0506D1F804C0AE
:102590001CF4003F01D042EA0506564D6E60AD685E
:1025A00004EA0506D1F804C01CF4801F01D042EAF9
:1025B0000506504DAE60ED682C404E6816F4001FC5
:1025C00001D042EA05044B4AD46001330A6832FA6A
:1025D00003F400F08A804FF0010C0CFA03FC1CEAB3
:1025E0000202F2D04C6804F00304013C012C87D9AC
:1025F0004C6804F00304032C0CD0C4685D004FF059
:10260000030C0CFA05FC24EA0C0C8C68AC4044EA80
:102610000C04C4604C6804F00304022C85D00468E8
:102620004FEA430E4FF0030C0CFA0EFC24EA0C0C9C
:102630004C6804F0030404FA0EF444EA0C04046049
:102640004C6814F4403FC0D0002401942A4C656CBF
:1026500045F480456564646C04F480440194019CF5
:102660004FEA930C0CF10205214C54F8255003F06D
:1026700003044FEA840E0F2404FA0EF425EA04053D
:102680001E4CA0423FF468AF04F58064A0421ED007
:1026900004F58064A0421CD004F58064A0421AD0E6
:1026A00004F58064A04218D004F58064A04216D0DE
:1026B00004F58064A04214D004F58064A04212D0D6
:1026C00004F58064A0423FF445AF092445E70124A6
:1026D00043E7022441E703243FE704243DE70524C0
:1026E0003BE7062439E7072437E702B070BD00BF97
:1026F00000380140003C0140003802400000024028
:102700000AB18161704709048161704730B405687E
:102710002C6824F480242C60046863608368402B58
:1027200005D0036899600368DA6030BC70470368BD
:102730009A600368D960F8E710B40368D9B2103919
:102740000B4AA2FB014212090A4CA25CC2655F2936
:1027500008D923F47F7323F0030304338365806D6A
:1027600010BC704723F47F7323F003038365F6E7FF
:10277000ABAAAAAA68AA0008836A826992B9012B47
:102780000AD0022B02D00BB100207047C36A13F0AD
:10279000807F28D100207047C36AB3F1C07F24D066
:1027A00000207047B2F5005F09D0022B25D9032B1A
:1027B00025D1C36A13F0807F23D100207047032BFB
:1027C00003D8DFE803F01404140A00207047C36A3A
:1027D00013F0807F0DD100207047C36AB3F1C07F32
:1027E00009D0002070470120704701207047012068
:1027F000704701207047012070470120704700207A
:10280000704701207047000070B50446FFF7B8FA22
:10281000002C5BD00546022384F83530002384F871
:1028200034302268136823F00103136023681A68A8
:1028300012F0010F0AD0FFF7A3FA431B052BF5D9BD
:1028400020236365032084F8350070BD1A68204892
:1028500010406168A2680A43E1680A4321690A439B
:1028600061690A43A1690A43E1690A43216A0A438B
:102870000243616A04291ED01A602668756925F032
:102880000705636A1D43042B07D1A36A1D43E36A4E
:102890001BB12046FFF770FF90B975612046FFF726
:1028A0004BFFE26D3F23934083600020606501236E
:1028B00084F83530C9E7E16A206B01430A43DBE75E
:1028C00040236365012084F83500BEE70120BCE7A2
:1028D0003F8010F038B50446856D90F8340001282B
:1028E0002BD0012084F8340094F83500C0B20128C0
:1028F00004D0002384F83430022038BD022084F84C
:102900003500002060652046FFF700FFE26D3F23A1
:102910009340AB602268136843F016031360236C86
:1029200023B12268136843F0080313602268136818
:1029300043F0010313600020DFE70220DDE770B5FC
:102940000446866DFFF71CFA94F83530DBB2022B93
:1029500006D080236365002384F83430012070BDE5
:1029600005462268136823F0160313602268536932
:1029700023F080035361236CE3B12268136823F0D2
:10298000080313602268136823F0010313602368AF
:102990001B6813F0010F11D0FFF7F2F9431B052B51
:1029A000F5D920236365032084F83500002384F8DB
:1029B0003430D4E7A36C002BDFD1E3E7E26D3F2393
:1029C0009340B360012384F83530002084F834004C
:1029D000C5E790F83530DBB2022B03D08023436586
:1029E00001207047052380F835300268136823F012
:1029F0000103136000207047F0B583B00446002344
:102A00000193724B1D68724BA3FB0535AD0A876DB0
:102A10003E68C26D08239340334210D003681A68A1
:102A200012F0040F0BD01A6822F004021A60C26D73
:102A300008239340BB60436D43F001034365E26D9F
:102A400001239340334209D02268526912F0800F6B
:102A500004D0BB60636D43F002036365E26D042341
:102A60009340334209D02268126812F0020F04D05A
:102A7000BB60636D43F004036365E26D1023934014
:102A8000334224D02268126812F0080F1FD0BB60B6
:102A900023681A6812F4802F0DD01B6813F4002FDE
:102AA00004D1236C9BB12046984710E0A36C73B10E
:102AB000204698470BE01A6812F4807F03D11A6809
:102AC00022F008021A60236C0BB120469847E26D91
:102AD00020239340334255D02268126812F0100F21
:102AE00050D0BB6094F83530DBB2052B0ED0236894
:102AF0001A6812F4802F33D01B6813F4002F2AD1E8
:102B0000636C002B3ED0204698473BE02268136858
:102B100023F0160313602268536923F08003536186
:102B2000236CA3B12268136823F008031360E26DDD
:102B30003F239340BB60012384F83530002384F8A1
:102B40003430236D002B3FD0204698473CE0A36CE7
:102B5000002BE7D1EBE7E36BA3B12046984711E0E8
:102B60001A6812F4807F09D11A6822F010021A60E4
:102B7000012384F83530002384F83430E36B0BB143
:102B800020469847636DFBB1636D13F0010F17D0BA
:102B9000052384F835302268136823F0010313609D
:102BA000019B01330193AB4204D823681B6813F0E7
:102BB000010FF5D1012384F83530002384F8343037
:102BC000E36C0BB12046984703B0F0BD080000202D
:102BD000B5814E1B002800F0CC8070B5044690F8FB
:102BE0003D30002B77D0242384F83D3022681368D1
:102BF00023F0010313602268136843F40043136059
:102C00002268136823F400431360FFF7D3FB626864
:102C10005A4B9A4264D85A4B98428CBF00230123E6
:102C2000002B40F0A8805749A1FB00318B0C256890
:102C30006A6822F03F0242EA91426A6021680A6AA9
:102C400022F03F0266684D4DAE424FD80133134328
:102C50000B622168CA6922F44F4222F0FF026668C3
:102C6000464B9E424CD8431E7600B3FBF6F301332D
:102C700040F6FC70034278D0C3F30B031343CB61DF
:102C800021680B6823F0C003E269206A0243134302
:102C90000B6021688B6823F4034323F0FF03226950
:102CA000E068024313438B602168CB6823F0FF0385
:102CB0006269A06902431343CB602268136843F042
:102CC0000103136000202064202384F83D3020633A
:102CD00084F83E0070BD80F83C30FEF7B1FC82E71E
:102CE000294B98428CBF0023012399E74FF4967536
:102CF00005FB03F3254DA5FB03539B090133A6E711
:102D0000A368BBB9451E06EB460CB5FBFCF50135C7
:102D1000C5F30B05B5FA85F56D0945BBC3B9013897
:102D200006EB4603B0FBF3F30133C3F30B0343F4A9
:102D30000043A3E7451E06EB860C0CEB8C0CB5FBA1
:102D4000FCF50135C5F30B05B5FA85F56D09E4E72A
:102D5000013806EB860303EB8303B0FBF3F3013387
:102D6000C3F30B0343F4404388E7042386E70123BE
:102D700084E7012070470120ACE700BFA086010076
:102D80007F841E0083DE1B43FF083D00D34D62108D
:102D90002DE9F04782B00546884617461E46FEF7E5
:102DA000EFFF0A9B1B1A03EB0609FEF7E9FF8246B9
:102DB0002B4B1B68C3F3CB3309FB03F301932B6845
:102DC0009C6838EA04030CBF4FF0010C4FF0000C74
:102DD000BC4540D0B6F1FF3FF1D0FEF7D1FFA0EBEC
:102DE0000A0048450AD2B9F1000F07D0019A02B192
:102DF0004A46019B013B01939146E0E72A685368EC
:102E000023F0E00353606B68B3F5827F0BD0AB6AAD
:102E1000B3F5005F14D0012385F85130002385F805
:102E20005030032018E0AB68B3F5004F02D0B3F583
:102E3000806FECD12A68136823F040031360E6E743
:102E40002A68136823F4005313602A68136843F454
:102E500000531360DFE7002002B0BDE8F08700BF39
:102E60000800002010B582B004460B4600920022F4
:102E70008021FFF78DFF08B902B010BD636D43F0EC
:102E8000200363650320F7E710B582B004460B46C4
:102E90004168B1F5827F08D000920022802120464F
:102EA000FFF776FF70B902B010BD8168B1F5004F31
:102EB00002D0B1F5806FEFD12068016821F04001A8
:102EC0000160E9E7636D43F0200363650320EAE7EF
:102ED00000285AD010B50446436A33B94368B3F5A5
:102EE000827F05D00023C36102E0002303614361B8
:102EF0000023A36294F85130002B40D0022384F8C1
:102F000051302268136823F040031360636803F4B0
:102F10008273A26802F404421343E26802F400627E
:102F20001343226902F002021343626902F00102B4
:102F30001343A26902F400721343E26902F03802FB
:102F40001343226A02F080021343A26A02F4005281
:102F5000216813430B60638B03F00403626A02F081
:102F60001002216813434B602268D36923F4006385
:102F7000D36100206065012384F8513010BD84F8CE
:102F800050302046FEF794FBB8E7012070472DE94A
:102F9000F04383B01D4690F85030012B00F0D180F3
:102FA000044688469146012380F85030FEF7E8FE3B
:102FB000074694F85160F6B2012E40F0AF80B8F1A8
:102FC000000F00F0AC80B9F1000F00F0A8800323DF
:102FD00084F8513000236365C4F83080A4F834903D
:102FE000A4F83690A363A387E38763642364A3688C
:102FF000B3F5004F1ED023681A6812F0400F03D1BA
:103000001A6842F040021A60E368B3F5006F1CD002
:10301000636813B1B9F1010F52D1226B23681278A2
:103020001A73236B01332363E38E9BB2013B9BB284
:10303000E38645E02268136823F0400313602268AA
:10304000136843F480431360D5E7636813B1B9F1A3
:10305000010F16D1226B23681288DA60236B0233CA
:103060002363E38E9BB2013B9BB2E38609E0FEF74C
:1030700087FEC01BA84202D3B5F1FF3F59D1002DF6
:1030800059D0E38E9BB2002B33D023689A6812F09C
:10309000020FECD0226B1288DA60236B02332363B9
:1030A000E38E9BB2013B9BB2E386EAE7FEF768FE44
:1030B000C01BA84202D3B5F1FF3F3ED1002D3ED048
:1030C000E38E9BB2ABB123689A6812F0020FEDD089
:1030D000226B12781A73236B01332363B4F836C062
:1030E0001FFA8CFC0CF1FF3C1FFA8CFCA4F836C0D4
:1030F000E6E73A4629462046FFF7B4FE08B120230A
:103100006365A36833B901932368DA6801929B6809
:103110000193019B636D13B9002600E00226012391
:1031200084F85130002384F85030304603B0BDE8B5
:10313000F0830326F3E70326F1E70326EFE70326F0
:10314000EDE70226F1E72DE9F04383B01F460A9D23
:1031500090F85030012B00F01081044688469146CB
:10316000012380F85030FEF70BFE064694F85130EC
:10317000DBB26268012B0AD0B2F5827F40F0E380B7
:10318000A268002A40F0E980042B40F0E880B8F102
:10319000000F00F0E680B9F1000F00F0E480002F8E
:1031A00000F0E38094F85130DBB2042B02D0052309
:1031B00084F8513000236365C4F83890E787A78707
:1031C000C4F83080E786A7862364636423681A689E
:1031D00012F0400F03D11A6842F040021A60E3680F
:1031E000B3F5006F11D063680BB1012F0BD1226BC7
:1031F000236812781A73236B01332363E38E9BB227
:10320000013B9BB2E38601276BE063680BB1012FA2
:103210000BD1226B23681288DA60236B023323639D
:10322000E38E9BB2013B9BB2E38601271CE023683F
:103230009A6812F0010F0ED0E28F92B25AB1DA689A
:10324000A36B1A80A36B0233A363E38F9BB2013B92
:103250009BB2E3870127FEF793FD801BA84203D3AF
:10326000B5F1FF3F40F08380E38E9BB21BB9E38F43
:103270009BB2002B53D023689A6812F0020FD6D06D
:10328000E28E92B2002AD2D0002FD0D0226B1288C8
:10329000DA60236B02332363E38E9BB2013B9BB264
:1032A000E3860027C3E723689A6812F0010F0ED067
:1032B000E28F92B25AB1DA68A36B1A70A36B013332
:1032C000A363E38F9BB2013B9BB2E3870127FEF729
:1032D00057FD831BAB4202D3B5F1FF3F49D1002D0F
:1032E00049D0E38E9BB213B9E38F9BB2BBB1236885
:1032F0009A6812F0020FD6D0E28E92B2002AD2D093
:10330000002FD0D0226B12781A73236B0133236302
:10331000E38E9BB2013B9BB2E3860027C3E73246B4
:1033200029462046FFF79EFD48B9A36863B901937B
:103330002368DA6801929B680193019B04E02023D3
:103340006365012000E00220012384F8513000234E
:1033500084F8503003B0BDE8F0830220F4E7022087
:10336000F2E70120F0E70120EEE70120ECE703207F
:10337000EAE70320E8E70320E6E70220EAE72DE991
:10338000F04383B00446884691461D464068B0F538
:10339000827F38D094F85030012B00F0AE800123AA
:1033A00084F85030FEF7ECFC074694F85160F6B212
:1033B000012E40F08F80B8F1000F00F08C80B9F141
:1033C000000F00F08880042384F8513000236365E7
:1033D000C4F83880A4F83C90A4F83E902363A386F8
:1033E000E38623646364A368B3F5004F19D02368B0
:1033F0001A6812F0400F03D11A6842F040021A60B6
:10340000E3681BB341E0A368002BC3D1042384F815
:103410005130009513460A462046FFF794FE0646B3
:103420005FE02268136823F040031360226813688A
:1034300023F480431360DAE7FEF7A2FCC01BA84226
:1034400002D3B5F1FF3F50D1002D50D0E38F9BB296
:10345000002B33D023689A6812F0010FECD0A26BD6
:103460001B7B1370A36B0133A363E38F9BB2013B00
:103470009BB2E387EAE7FEF783FCC01BA84202D3B6
:10348000B5F1FF3F35D1002D35D0E38F9BB2ABB105
:1034900023689A6812F0010FEDD0DA68A36B1A80E6
:1034A000A36B0233A363B4F83EC01FFA8CFC0CF18B
:1034B000FF3C1FFA8CFCA4F83EC0E6E73A462946DA
:1034C0002046FFF7E1FC08B120236365636D13B963
:1034D000002600E00226012384F85130002384F8FE
:1034E0005030304603B0BDE8F0830326F3E70326EF
:1034F000F1E70326EFE70326EDE70226F1E7704741
:1035000090F83D30DBB2012B37D1022380F83D30FB
:103510000268D36843F00103D3600368194A9342F9
:1035200020D0B3F1804F1DD0A2F57C42934219D038
:1035300002F58062934215D002F58062934211D069
:1035400002F5784293420DD002F57052934209D0B1
:10355000A2F59432934205D01A6842F001021A6033
:10356000002070479A6802F00702062A07D01A68FE
:1035700042F001021A6000207047012070470020CD
:10358000704700BF000001407047704770477047A8
:1035900010B5044603681A6912F0020F11D0DA68F8
:1035A00012F0020F0DD06FF002021A6101230377AF
:1035B00003689B6913F0030F70D0FFF7E6FF002349
:1035C000237723681A6912F0040F12D0DA6812F018
:1035D000040F0ED06FF004021A61022323772368D0
:1035E0009B6913F4407F5FD02046FFF7CEFF002396
:1035F000237723681A6912F0080F12D0DA6812F0E4
:10360000080F0ED06FF008021A6104232377236895
:10361000DB6913F0030F4ED02046FFF7B6FF0023FF
:10362000237723681A6912F0100F12D0DA6812F0AB
:10363000100F0ED06FF010021A6108232377236851
:10364000DB6913F4407F3DD02046FFF79EFF002347
:10365000237723681A6912F0010F03D0DA6812F099
:10366000010F36D123681A6912F0800F03D0DA688F
:1036700012F0800F34D123681A6912F0400F03D082
:10368000DA6812F0400F32D123681A6912F0200F65
:1036900003D0DA6812F0200F30D110BDFFF774FFAD
:1036A0002046FFF773FF8AE72046FFF76DFF2046AD
:1036B000FFF76CFF9BE72046FFF766FF2046FFF70A
:1036C00065FFACE72046FFF75FFF2046FFF75EFF90
:1036D000BDE76FF001021A612046FDF763FDC1E707
:1036E0006FF080021A61204600F0A1F8C3E76FF086
:1036F00040021A612046FFF74AFFC5E76FF020023B
:103700001A61204600F092F8C7E700000368304ACB
:10371000904212D0B0F1804F0FD0A2F57C4290427F
:103720000BD002F58062904207D002F58062904291
:1037300003D002F57842904203D123F070034A6827
:103740001343234A90422AD0B0F1804F27D0A2F5EC
:103750007C42904223D002F5806290421FD002F555
:10376000806290421BD002F57842904217D002F559
:103770007052904213D002F5806290420FD002F551
:10378000806290420BD0A2F59832904207D002F5A9
:103790008062904203D002F58062904203D123F40C
:1037A0004073CA68134323F080034A6913430360DC
:1037B0008B68C3620B688362054B984203D003F5A4
:1037C0008063984201D10B69036301234361704711
:1037D0000000014040B310B5044690F83D30F3B10D
:1037E000022384F83D30214651F8040BFFF78EFF89
:1037F000012384F8463084F83E3084F83F3084F862
:10380000403084F8413084F8423084F8433084F802
:10381000443084F8453084F83D30002010BD80F8F5
:103820003C30FFF76CFEDBE70120704770477047C4
:1038300070470268D36823F0C003D360202380F868
:103840003D3070470268D36823F49073D3600268F8
:10385000536923F001035361036B012B05D020232F
:1038600080F83E300023036370470268D36823F07A
:103870001003D360F3E790F83D30DBB2212B01D089
:10388000022070478368B3F5805F17D0036A5A1C23
:1038900002621A7803685A60C38C9BB2013B9BB2E8
:1038A000C3844BB90268D36823F08003D3600268F5
:1038B000D36843F04003D360002070470369002BB6
:1038C000E4D1036A1B880268C3F308035360036AE8
:1038D00002330362E0E7000038B50446026813696A
:1038E00023F44053C1680B43136183680269134397
:1038F00042691343C2691A430168CB6823F4164333
:1039000023F00C031343CB600268536923F4407324
:1039100081690B4353610368264A934206D002F53E
:103920008062934202D0FEF745FD01E0FEF758FDAC
:10393000E369B3F5004F1DD000EB800202EB820279
:1039400060688000B2FBF0F21B48A0FB023149091D
:10395000642303FB11231B013233A0FB03235B0908
:1039600003F0F00202EB011203F00F03216813448D
:103970008B6038BD00EB800000EB800063685B006B
:10398000B0FBF3F00C4DA5FB00325109642303FB9F
:103990001103DB003233A5FB03235B095A0002F459
:1039A000F87202EB011203F00703216813448B60E5
:1039B000DFE700BF001001401F85EB512DE9F84300
:1039C00005460F4616469946DDF820802C68246887
:1039D00037EA04030CBF4FF0010C4FF0000CB44564
:1039E0001FD1B8F1FF3FF1D0B8F1000F05D0FEF7BD
:1039F000C7F9A0EB09004045E8D92A68D36823F449
:103A0000D073D3602A68536923F0010353612023E4
:103A100085F83D3085F83E30002385F83C300320A2
:103A200000E00020BDE8F88358B310B5044690F8D4
:103A30003D300BB3242384F83D302268D36823F44F
:103A40000053D3602046FFF747FF2268136923F431
:103A5000904313612268536923F02A03536122685B
:103A6000D36843F40053D36000202064202384F8FB
:103A70003D3084F83E3010BD80F83C30FDF750FEFC
:103A8000D8E7012070472DE9F04182B01E4690F83A
:103A90003D30DBB2202B54D104460D469046002920
:103AA00053D0002A53D090F83C30012B51D0012341
:103AB00080F83C3000230364212380F83D30FEF77A
:103AC0005FF90746A4F82480A4F82680A368B3F51C
:103AD000805F05D04FF00008002384F83C3012E0EE
:103AE000236913B14FF00008F6E7A8460025F3E775
:103AF00038F8023B2268C3F308035360E28C92B2A9
:103B0000013A92B2E284E38C9BB273B100963B46D9
:103B1000002280212046FFF751FFE0B9002DE7D0B9
:103B200015F8012B23685A60E8E700963B4600220F
:103B300040212046FFF742FF78B9202384F83D302A
:103B400000E0022002B0BDE8F0810120FAE7012088
:103B5000F8E70220F6E70320F4E70320F2E77047D6
:103B600008B50168CA6822F04002CA60202280F8C5
:103B70003D20FFF7F4FF002008BD704770477047F5
:103B800010B5846B23685A6994F83D30DBB2212B61
:103B900010D023685A6902F0400294F83E30DBB23C
:103BA000222B11D0236C43F0100323642046FFF72F
:103BB000E6FF10BD02F08002002AEAD00023E38471
:103BC0002046FFF736FEE4E7002AEBD00023E3852A
:103BD0002046FFF737FEE5E708B5806B0023C38575
:103BE000C384FFF7CCFF08BD90F83E30DBB2222B38
:103BF00060D18368B3F5805F46D0826AB3F5805F99
:103C000004D0002B4DD10369002B4AD103685B68B7
:103C10001370836A01338362C38D9BB2013B9BB2F5
:103C2000C385002B48D100B583B00268D36823F068
:103C30002003D3600268D36823F48073D3600268E2
:103C4000536923F001035361202380F83E30036B56
:103C5000012B2CD1002303630268D36823F01003E7
:103C6000D36003681A6812F0100F06D00022019288
:103C70001A6801925B680193019B818D01F026F91E
:103C8000002003B05DF804FB0269002AB5D1826A06
:103C900003685B68C3F308031380836A023383629B
:103CA000BAE703685B6803F07F031370B1E7FFF7BF
:103CB00064FFE5E7022070470020704730B583B00D
:103CC000044602681368D068516913F00F0505D1E6
:103CD00013F0200F02D010F0200F19D12DB111F0E8
:103CE000010119D110F4907F16D1216B012975D0F3
:103CF00013F0800F03D010F0800F40F0D88013F045
:103D0000400F03D010F0400F40F0D58003B030BD1D
:103D10002046FFF769FFF9E713F0010F06D010F412
:103D2000807F03D0226C42F00102226413F0040F62
:103D300004D019B1226C42F00202226413F0020F87
:103D400004D019B1226C42F00402226413F0080F6F
:103D500007D010F0200F00D119B1226C42F00802F8
:103D60002264226C002AD1D013F0200F02D010F070
:103D7000200F21D123685B6903F04003226C12F00D
:103D8000080F00D123B32046FFF75CFD23685A6972
:103D900012F0400F18D05A6922F040025A61A36B0A
:103DA00073B1474A1A65A06BFEF713FE0028ADD029
:103DB000A06B036D9847A9E72046FFF715FFD9E7E9
:103DC0002046FFF7DCFEA1E72046FFF7D8FE9DE77F
:103DD0002046FFF7D4FE0023236497E713F0100F6B
:103DE00086D010F0100F83D0002301931368019345
:103DF00053680193019B536913F0400F33D0A16BBB
:103E00000B685B689BB2002B80D0A08D98427FF638
:103E10007DAFE385CB69B3F5807F08D1A18DE38DBC
:103E20009BB2C91A89B2204601F050F86EE7D368F8
:103E300023F48073D3602268536923F00103536134
:103E40002268536923F040035361202384F83E30F5
:103E5000002323632268D36823F01003D360A06B90
:103E6000FEF76DFDDAE7A18DE38D9BB2C91A89B229
:103E7000E38D9BB2002B3FF449AF00293FF446AFDE
:103E8000D36823F49073D3602268536923F001034D
:103E90005361202384F83E30002323632268D368D3
:103EA00023F01003D360204601F010F82EE72046DF
:103EB000FFF7E1FC2AE72046FFF752FE26E700BFA6
:103EC000D93B000808B5806B036B012B02D0FFF7CC
:103ED00055FE08BD818D490800F0F8FFF9E708B5E7
:103EE0000346806B1B681B6813F4807F16D1002388
:103EF000C3850268D36823F48073D3600268536972
:103F000023F0010353610268536923F040035361B6
:103F1000202380F83E30036B012B05D0036B012B6F
:103F200008D0FFF72AFE08BD0268D36823F010030B
:103F3000D360F3E7818D00F0C9FFF4E730B583B0BB
:103F4000044613468162828500250564222280F89A
:103F50003E20826B1448D063A26B14481064A26B9D
:103F60001348D064A26B156520680A46011DA06B3A
:103F7000FEF7B0FC019523681A6801925A68019215
:103F8000019A84F83C50DA6842F48072DA60226860
:103F9000536943F0010353612268536943F04003BE
:103FA0005361284603B030BDDF3E0008C53E00081F
:103FB000813B000890F83E30DBB2202B21D110B5B8
:103FC00082B00446F9B102B390F83C30012B1FD007
:103FD000012380F83C300363FFF7B0FFB0B9236BD7
:103FE000012B01D0012011E00023019323681A68FE
:103FF00001925A680192019ADA6842F01002DA607E
:1040000004E002207047012000E0012002B010BD52
:104010000220FBE708B538B10122074B1988074B8E
:104020001868FEF76DFB08BD0022034B1988034B8F
:104030001868FEF765FBF6E71E130020201300202A
:1040400008B538B10122074B1988074B1868FEF7ED
:1040500057FB08BD0022034B1988034B1868FEF775
:104060004FFBF6E71C1300202013002010B582B090
:1040700004460020FFF7CEFF04F01F048DF8044033
:104080000A4C6423012201A92046FEF780FF642325
:1040900001220DF105012046FFF771F99DF8054059
:1040A0000120FFF7B7FF204602B010BD2413002007
:1040B00070B582B004460D4616460020FFF7AAFFF1
:1040C00004F01F048DF80440084C6423012201A968
:1040D0002046FEF75CFF6423324629462046FFF760
:1040E0004EF90120FFF796FF02B070BD24130020A7
:1040F00030B583B004460D460020FFF78BFF44F037
:1041000020048DF804408DF805506423022201A993
:104110000348FEF73CFF0120FFF77CFF03B030BDF2
:104120002413002070B582B004460D4616460020C8
:10413000FFF770FF44F020048DF80440084C64231E
:10414000012201A92046FEF722FF642332462946B8
:104150002046FEF71CFF0120FFF75CFF02B070BD98
:104160002413002070B582B004460D460020FFF7EE
:1041700051FFA0238DF80730094E642301220DF171
:1041800007013046FEF703FF64232A4621463046E6
:10419000FEF7FDFE0120FFF73DFF02B070BD00BF3E
:1041A0002413002008B5FF21E120FFF7A1FF08BD7F
:1041B00008B5FF21E220FFF79BFF08BD08B50720E7
:1041C000FFF754FF08BD08B50020FFF739FFFFF7E0
:1041D000E9FFFFF7EDFF08BD00B583B0CDE90001B1
:1041E000052269460A20FFF79DFF05226946102037
:1041F000FFF798FF054B1978202928BF20211120AF
:10420000FFF776FF03B05DF804FB00BFC01300208A
:1042100008B501F00F0141EA0011C9B20420FFF70F
:1042200067FF08BD08B501467F2828BF7F2105200C
:10423000FFF75EFF08BD0000202828BF2020014BAB
:1042400018707047C0130020014B1878704700BFEA
:10425000C013002070B582B006460D46FFF7F4FF8C
:104260000446A84200D92C460020FFF7D3FE612364
:104270008DF80730094D642301220DF1070128460E
:10428000FEF785FE6423A2B231462846FFF777F891
:104290000120FFF7BFFE02B070BD00BF2413002055
:1042A00008B56020FFF7E2FE08BD10B5FFF7D2FFAA
:1042B0001720FFF7DBFE00F00104FFF779FFFFF79F
:1042C000EFFF204610BD000008B51D20FFF7CEFE11
:1042D00000F0FB011D20FFF70BFF00211C20FFF762
:1042E00007FF024B00221A7008BD00BF1613002002
:1042F00008B520B13F210120FFF7FAFE08BD0021DB
:104300000120FFF7F5FEF9E710B504460620FFF798
:10431000ADFE00F0F901032C09D0022C0DD0012CC8
:104320000ED034B1042C04D141F0060101E041F07B
:1043300006010620FFF7DCFE10BD41F00401F8E79E
:1043400041F00201F5E7000038B505460620FFF709
:104350008DFE124B00221A7000F0D704022D11D0EE
:10436000012D13D00D4B00221A7021460620FFF7B5
:10437000BFFE0620FFF77AFEA0420DD00020074BBB
:10438000187038BD1A7044F02004EEE7034B012288
:104390001A7044F00804E8E70120F2E7C81300208F
:1043A00010B504460020FFF761FE00F0F3011CB1D8
:1043B000012C05D041F00C010020FFF799FE10BD43
:1043C00041F00801F8E708B50020FFF74FFE00F0C4
:1043D000FD010020FFF78CFE08BD70B50546FFF714
:1043E000EDFE00F04003002B14BF012600260BD089
:1043F000044615B1C0F342032B7040210720FFF79C
:1044000077FE14F0200F01D1304670BD2021072027
:10441000FFF76EFEF8E708B50020FFF7DEFF08BDE6
:1044200038B504460D460020FFF70AFE0020FFF7CE
:104430001DFE20F0010343F0020303F0FE01002003
:10444000FFF756FE0120FFF7FBFD29462046FFF748
:1044500089FE0120FFF7F4FD0020FFF7F1FD38BDD4
:10446000024B187800221A70704700BF1413002006
:10447000F8B505460F461646FFF7A0FE0446002392
:104480002B7070210720FFF733FEC4F340132B700D
:10449000C4F300133B70C4F380143470F8BD08B546
:1044A00070210720FFF724FE08BD000030B583B05F
:1044B00004460D46FFF7F3FF29462046FFF7B0FFFD
:1044C000174B1B6898470446164B1D6801220DF1D7
:1044D00007010820FFF7ECFDFFF770FE10F0300F2A
:1044E00005D10F4B1B689847001BA842EED30E4C1A
:1044F00022460DF105010DF10600FFF7B9FF9DF809
:104500000650237833B9FFF786FFFFF74BFE2846A6
:1045100003B030BDFFF7C4FE044B1870F3E700BFD3
:10452000181300200C000020141300201513002085
:1045300000B583B00020FFF76DFD50238DF80430E7
:1045400073238DF805306423022201A90448FEF785
:104550001EFD0120FFF75EFD03B05DF804FB00BF08
:104560002413002084B070B598B01CAC84E80F0010
:1045700058221E9902A801F07BFF1C9EBDF87650C0
:10458000BDF874401F9A644B1A60209A634B1A60FE
:10459000219B0BB1624A1360582202A9614801F0C5
:1045A00067FF614B1E60614B1D80614B1C800120C9
:1045B000FFF730FD0020FFF743FD574B1B68052038
:1045C000984708210020FFF793FD3F210120FFF7C6
:1045D0008FFD03210220FFF78BFD03210846FFF723
:1045E00087FD03210420FFF783FD02210520FFF74B
:1045F0007FFD0F210620FFF77BFD0E210720FFF72F
:1046000077FD00210820FFF773FD00210920FFF747
:104610006FFDE7248DF804408DF803408DF80240CB
:104620008DF801408DF80040052269460A20FFF709
:1046300079FDC2238DF804308DF803308DF80230F7
:104640008DF801308DF80030052269460B20FFF708
:1046500069FDC3210C20FFF74BFDC4210D20FFF79E
:1046600047FDC5210E20FFF743FDC6210F20FFF7B0
:104670003FFD8DF804408DF803408DF802408DF821
:1046800001408DF80040052269461020FFF74AFDE1
:1046900000211120FFF72CFD00211220FFF728FD3B
:1046A00000211320FFF724FD00211420FFF720FD37
:1046B00000211520FFF71CFD00211620FFF718FD33
:1046C000FFF736FF00211C20FFF712FD00211D20FF
:1046D000FFF70EFD0F210846FFF79AFD0320FFF7B5
:1046E00013FE0120FFF730FE0220FFF759FEFFF70F
:1046F000EBFD2020FFF7A0FDFFF7D1FE4C20FFF7D8
:1047000091FDFFF74FFDFFF753FDFFF75CFE18B07B
:10471000BDE8704004B07047C41300201813002097
:104720000C00002024130020201300201E13002062
:104730001C13002008B51D20FFF798FC40F006016F
:10474000C9B21D20FFF7D4FC1D20FFF78FFC48B134
:104750001C20FFF78BFC40F00301C9B21C20FFF7BF
:10476000C7FC08BDFFF7E4FE1D20FFF77FFC40F00B
:104770000601C9B21D20FFF7BBFCE9E708B51D2003
:10478000FFF774FC40F00401C9B21D20FFF7B0FC34
:104790001D20FFF76BFC60B11C20FFF767FC40F0A9
:1047A0003F01C9B21C20FFF7A3FC084B01221A707D
:1047B00008BDFFF7BDFE1D20FFF758FC40F00401C7
:1047C000C9B21D20FFF794FCE6E700BF16130020D6
:1047D00070B5A0B00DF11C0CC44C0FCCACE80F00B0
:1047E0000FCCACE80F000FCCACE80F0023682CF81E
:1047F000023B1B0C8CF8003007A8FBF7F3FC0A23E4
:1048000082B207A9BA48FFF73EF90020FFF72EFC55
:1048100010F0080F00F0678210F0040F00F05782CC
:1048200007ACB44D0FCD0FC495E8070084E807002E
:1048300007A8FBF7D7FCAE4C0A2382B207A9204693
:10484000FFF721F90120FFF711FCC0F34013039398
:10485000C0F300130293C0F3C0030193C0F38003BD
:104860000093C0F3400300F00102A34907A802F03F
:10487000F1FB07A8FBF7B6FC0A2382B207A9204682
:10488000FFF701F90220FFF7F1FBC0F34013039398
:10489000C0F300130293C0F3C0030193C0F380037D
:1048A0000093C0F3400300F00102944907A802F00E
:1048B000D1FB07A8FBF796FC0A2382B207A9204682
:1048C000FFF7E1F80320FFF7D1FB00F0030202320B
:1048D0008B4907A802F0BEFB07A8FBF783FC0A235D
:1048E00082B207A92046FFF7CEF80520FFF7BEFBEE
:1048F00000F07F02834907A802F0ACFB07A8FBF792
:1049000071FC0A2382B207A92046FFF7BCF80620F3
:10491000FFF7ACFB044610F0080F00F0EB810DF13F
:104920001C0C794D0FCDACE80F0095E803004CF856
:10493000040B2CF8021B090C8CF8001007A8FBF7DD
:1049400051FC0A2382B207A96948FFF79CF8C4F317
:10495000410314F0060F00F0DD81012B00F0E1812E
:10496000022B00F0E581032B00F0EC8107A8FBF798
:1049700039FC5F4C0A2382B207A92046FFF783F86F
:10498000052205A90A20FFF793FB9DF816309DF834
:1049900015209DF814100291019200939DF8173094
:1049A0009DF81820594907A802F054FB07A8FBF707
:1049B00019FC0A2382B207A92046FFF764F80522F2
:1049C00005A90B20FFF774FB9DF816309DF8152004
:1049D0009DF814100291019200939DF817309DF8F4
:1049E00018204B4907A802F035FB07A8FBF7FAFB94
:1049F0000A2382B207A92046FFF745F8012205A93C
:104A00000C20FFF755FB9DF81420424907A802F03F
:104A100021FB07A8FBF7E6FB0A2382B207A9204681
:104A2000FFF731F8012205A90D20FFF741FB9DF8A2
:104A30001420394907A802F00DFB07A8FBF7D2FBA9
:104A40000A2382B207A92046FFF71DF8012205A913
:104A50000E20FFF72DFB9DF81420304907A802F027
:104A6000F9FA07A8FBF7BEFB0A2382B207A9204682
:104A7000FFF709F8012205A90F20FFF719FB9DF8A0
:104A80001420274907A802F0E5FA07A8FBF7AAFBBC
:104A90000A2382B207A92046FEF7F5FF052205A9E1
:104AA0001020FFF705FB9DF816309DF815209DF8A6
:104AB00014100291019200939DF817309DF8182070
:104AC000184907A802F0C6FA07A8FBF78BFB0A23D0
:104AD00082B207A92046FEF7D6FF1120FFF7C6FADB
:104AE00000F03F02104907A820E000BF88AA000894
:104AF0007C130020BCAA000808AB00084CAB0008DF
:104B000098AB0008B4AB0008C8AB000848AC00087C
:104B100078AC0008A8AC0008D0AC0008F8AC0008DD
:104B200020AD000848AD000874AD000802F092FA0C
:104B300007A8FBF757FB0A2382B207A92046FEF716
:104B4000A2FF1220FFF792FA00F03F028D4907A85A
:104B500002F080FA07A8FBF745FB0A2382B207A9F7
:104B60002046FEF790FF1320FFF780FA00F03F0287
:104B7000854907A802F06EFA07A8FBF733FB0A2362
:104B800082B207A92046FEF77EFF1420FFF76EFAD7
:104B900000F03F027D4907A802F05CFA07A8FBF786
:104BA00021FB0A2382B207A92046FEF76CFF1520DD
:104BB000FFF75CFA00F03F02754907A802F04AFAD5
:104BC00007A8FBF70FFB0A2382B207A92046FEF7CE
:104BD0005AFF1620FFF74AFA00F03F026D4907A876
:104BE00002F038FA07A8FBF7FDFA0A2382B207A9F8
:104BF0002046FEF748FF1C20FFF738FAC0F34013A9
:104C00000393C0F300130293C0F3C0030193C0F3F6
:104C100080030093C0F3400300F001025E4907A83F
:104C200002F018FA07A8FBF7DDFA0A2382B207A9F7
:104C30002046FEF728FF1D20FFF718FA054610F062
:104C4000040F00F0868007AC544E0FCE0FC496E8D8
:104C5000030044F8040B218007A8FBF7C3FA0A23DA
:104C600082B207A94E48FEF70EFF15F0020F7DD065
:104C700007AC4C4D0FCD0FC495E8070003C422804C
:104C800007A8FBF7AFFA464D0A2382B207A92846C8
:104C9000FEF7F9FE0DF11C0C434C0FCCACE80F00F5
:104CA0000FCCACE80F000FCCACE80F0023682CF859
:104CB000023B1B0C8CF8003007A8FBF793FA0A2381
:104CC00082B207A92846FEF7DEFE20B070BD07AC11
:104CD000364D0FCD0FC495E8070003C424F8022B0E
:104CE000120C2270A4E507AC314D0FCD0FC42B6818
:104CF00023609DE50DF11C0C2E4D0FCDACE80F008F
:104D000095E803004CF8040B2CF8021B090C8CF8F6
:104D1000001013E607AC284D0FCD0FC42B6823609D
:104D200024E607AC254D0FCD0FC42B6823601DE68C
:104D300007AC234D0FCD0FC42B6824F8023B1B0C8E
:104D4000237013E607AC1F4D0FCD0FC42B682380D3
:104D50000CE607AC1C4E0FCE0FC496E8030044F8D7
:104D6000040B24F8021B090C217075E707AC174DE2
:104D70000FCD0FC495E8070003C424F8022B120CD2
:104D800022707DE790AD0008ACAD0008C8AD00080A
:104D9000E4AD000800AE00081CAE000868AE0008D4
:104DA0007C13002098AE000888AA0008D8AA000842
:104DB000F4AA0008E0AB0008F8AB00080CAC00084F
:104DC00020AC000834AC000880AE0008B4AE000887
:104DD00084B008B50DF1080C8CE80F004422614640
:104DE000034801F045FBBDE8084004B0704700BF30
:104DF0007C13002010B51B4B1C68D4F854341BB92D
:104E000041F28833C4F854340021E16021614FF449
:104E1000806204F1140001F053FBD4F8AC381BB9E4
:104E200041F28833C4F8AC380021C4F86414C4F8E3
:104E300068144FF4806204F26C4001F041FBD4F836
:104E4000043D1BB941F28833C4F8043D0021C4F885
:104E5000BC18C4F8C0184FF4806204F6C40001F016
:104E60002FFB10BDCC13002010B50446402200F2E9
:104E700014414068FFF79EF8A3681A68136823F08E
:104E80000803136010BD000010B50F4C2060FFF741
:104E9000B1FF2068037853B90B4B186890F8583469
:104EA00043B9094B186890F8B03843B910BDFFF703
:104EB000DBFFF1E700F58B60FFF7D6FFF1E700F5C8
:104EC0000B60FFF7D1FFF1E7CC1300202DE9F0478D
:104ED0000D461D4B1C68E3682669F61A002E25DD79
:104EE000EF18B7F5806F24DB9FB2C7F58067BFB2BC
:104EF00004F1140804F214493A46494608EB030049
:104F000001F0B6FAA5EB070A524609EB0701404645
:104F100001F0AEFAC4F80CA0B54202DBE36801333D
:104F200023612046FFF7A0FFBDE8F08706F5806605
:104F3000D6E704F114002A4604F21441184401F0A3
:104F400097FAE760E8E700BFCC13002010B50446ED
:104F500001F080FA08B1001B10BD4FF0FF30FBE7F5
:104F600084B010B58EB00DF1440E8EE80E00304CBA
:104F700020608446BEE80F00ACE80F00BEE80F00DA
:104F8000ACE80F009EE807008CE8070023689DF856
:104F9000602083F83820179A1A6304465863D9634F
:104FA0001B9A1A6503F1100292E803008DE80300D2
:104FB0000FCBFFF7D7FA6468EC4604F1100EBEE899
:104FC0000F00ACE80F00BEE80F00ACE80F00BEE831
:104FD0000F00ACE80F00DEF80030CCF8003094E8A9
:104FE0000F00FFF7F5FEFFF7EEF8124BD3E90001D3
:104FF000FFF7F2F80C20FFF715F90120FFF778F919
:105000002020FFF719F90020FFF77EF90120FFF7B4
:105010009BF90F210720FFF7FBF8FFF78BFBFFF74A
:10502000ADFBFFF7D5FB0EB0BDE8104004B07047F4
:10503000D01400201000002030B583B0054608468B
:105040008DF807200DF1070102F052FE0146002401
:105050000AE005EB441002F02CF801340DF10701D1
:10506000002002F045FE01460029F2D1084601F079
:10507000E9F9204603B030BD2DE9F0410746544B15
:105080001B68D3F83C805349FBF7A2F8002840F096
:105090009D80012409E0681C07EB401001F0A3F992
:1050A000FBF75CFDC8F8580002342546630107EBA6
:1050B0004416FB5C002B00F0898047493046FBF723
:1050C00087F80028E7D045493046FBF781F80028EB
:1050D00032D043493046FBF77BF8002836D04149AF
:1050E0003046FBF775F800283AD03F493046FBF7C9
:1050F0006FF800283ED03D493046FBF769F800289C
:1051000042D03B493046FBF763F8002846D0394986
:105110003046FBF75DF800284AD037493046FBF7A8
:1051200057F80028C0D101356D017B5D312B49D086
:10513000002388F87430B7E7681C07EB401001F0D3
:1051400052F9FBF70BFDC8F85C00ADE7681C07EBF4
:10515000401001F048F9FBF701FDC8F86000A3E733
:10516000681C07EB401001F03EF9FBF7F7FCC8F8AC
:10517000640099E7681C07EB401001F034F9FBF775
:10518000EDFCC8F868008FE7681C07EB401001F0E1
:105190002AF9FBF7E3FCC8F8700085E7681C07EB09
:1051A000401001F020F9FBF7D9FCC8F86C007BE750
:1051B000681C07EB401001F016F9FBF787FCC8F8F4
:1051C0007C0071E7012388F874306DE7BDE8F08159
:1051D000D0140020E4AE0008D8AE0008DCAE000811
:1051E000E0AE0008E8AE0008ECAE0008F0AE000843
:1051F000F4AE0008F8AE0008FCAE000838B504466E
:10520000064B1B68DD6B0649FAF7E2FF00B138BDBB
:1052100004F12001284601F04CFFF8E7D0140020EB
:1052200000AF000830B5ADF2044D0446194B1B68C1
:1052300093F8382062B92046FAF7D4FF02460A21D3
:105240002046FFF783FE00280CDC0DF2044D30BD34
:105250005D6BFAF7C7FF642382B221466868FEF7E8
:1052600012FCE8E72C2221466846FFF7E5FE0A49D2
:105270006846FAF7ADFF48B108496846FAF7A8FF53
:105280000028E2D16846FFF7F7FEDEE76846FFF741
:10529000B5FFDAE7D014002000AF0008E4AE000844
:1052A0002DE9F8430546FAF79DFF81B2254B1A68B0
:1052B000536D966D802941D89FB23B46B6B2F61B1E
:1052C000002E2ADD84B2E118802928DDC7F180078D
:1052D000BFB202F15C003A462946184401F0C8F812
:1052E000184BD3F80080A4EB07094A46E91908F1E6
:1052F0005C0001F0BDF8C8F85490B44204DB114BD7
:105300001A68536D013393650E4B1B68986D5B6D86
:10531000C01A002810DDBDE8F8838036D2E702F11C
:105320005C0022462946184401F0A2F8054B1A6891
:10533000536D23445365E0E78030ECE74FF0FF30D6
:10534000E9E700BFD0140020044B1B68986D5B6D2B
:10535000C01A002800DD70478030FCE7D014002020
:10536000074B1B68586D9B6D984201DDC01A704752
:10537000984203DAC3F18003184470470020704755
:10538000D014002003685A187F2A03DD803919449D
:10539000016070470260704770B505460C46FFF724
:1053A000DFFFA04200DC0446002C27DD144B196807
:1053B0008B6DC3F18006B44218DD58331944324670
:1053C0000431284601F062F80D4B1968A21B5C31CC
:1053D000A81901F05BF8631C0022EA54084B186816
:1053E000A1B25830FFF7CEFF204670BD58331944A4
:1053F00022460431284601F049F8ECE70020F4E7A2
:10540000D0140020F0B5544B1B68042B11DD002193
:1054100015E031F81340514850F82320224440F859
:1054200023200133032BF4DD4B4A1368013313604F
:10543000F0BD0023F6E79B1044F821300131032929
:1054400006DC464C54F82130002BF4DA0333F2E743
:10545000424B19681488091B01F500614FF47A75F5
:1054600005FB01F13E4C84FB016E0EEB01064FEA99
:10547000E17ECEEBE62EAE441FFA8EFEA0F800E0F1
:1054800059685688891B01F5006105FB01F184FB11
:10549000016C0CEB01064FEAE17CCCEBE62CAC4452
:1054A0001FFA8CFCA0F802C0D968D688891B01F5C8
:1054B000006105FB01F184FB01760E44C917C1EBC5
:1054C000E621294489B2C1809B6892889B1A05FB1A
:1054D00003F384FB03241C44DB17C3EBE4232B44BA
:1054E0009BB28380AE451BD20580BCF57A7F1ED26D
:1054F0004FF47A724280B3F57A7F1FD24FF47A73F9
:105500008380B1F57A7F20D24FF47A73C380134A37
:105510000023136053609360D3600F4A136083E7E6
:10552000BEF5FA6FE1D94FF4FA620280DDE7BCF50F
:10553000FA6FE0D94FF4FA624280DCE7B3F5FA6F14
:10554000DFD94FF4FA638380DBE7B1F5FA6FDED978
:105550004FF4FA63C380DAE718000020D414002067
:105560008100088038B5212000F064FF0446212224
:10557000002100F0A5FF1F4B186800F14802016DE3
:105580004030FFF73FFF20212046FFF705FF0028AE
:1055900004DC204600F056FF002038BDC1B2204692
:1055A000FEF784FF0028F4D0FEF75AFF0028F0D061
:1055B00021220021204600F083FF20212046FEF713
:1055C00074FE0D4D2146284601F064FD2846FAF789
:1055D00009FE02460A212846FFF7B8FC0028D8DB5E
:1055E0002846FFF71FFE4FF480720021284600F086
:1055F00067FFCEE7D0140020D0130020034B0360D8
:10560000034B0B6080231360704700BFE41600203B
:10561000E414002000F1080343604FF0FF32826081
:10562000C360036100230360704700230361704778
:1056300043684B609A688A605160996008610368AA
:1056400001330360704730B40D68B5F1FF3F11D0EE
:1056500000F108031C465B681A68AA42FAD963681D
:105660004B6099608C60616008610368013303607E
:1056700030BC70470469F2E70369416882688A6058
:10568000416851605A68824206D0002202611A685D
:10569000013A1A601868704782685A60F5E700009E
:1056A000084B1B681B6823B9074B4FF0FF321A6089
:1056B0007047044B1B68DB68DB685A68024B1A6052
:1056C000704700BF3C170020141800202DE9F04758
:1056D00007469846089DDDF824900A9C266B02F147
:1056E0008042013A06EB820626F007064FF0000CD6
:1056F000BCF10F0F0BD811F80C2004EB0C0383F84E
:10570000342011F80C3013B10CF1010CF0E7002338
:1057100084F84330062D00D90625E56265644FF014
:10572000000AC4F848A0201DFFF77FFF04F118000D
:10573000FFF77BFF2461C5F10705A5616462C4F82A
:105740004CA084F850A042463946304600F0D0FCC8
:105750002060B9F1000F01D0C9F80040BDE8F08722
:1057600038B5002407E004EB840293000E48184487
:10577000FFF750FF0134062CF5D90C4D2846FFF7F2
:1057800049FF0B4C2046FFF745FF0A48FFF742FF51
:105790000948FFF73FFF0948FFF73CFF084B1D6032
:1057A000084B1C6038BD00BF44170020E8170020DC
:1057B000FC1700201C180020481800203418002076
:1057C0003C1700204017002010B5044600F0BAFC3A
:1057D000214A136801331360204B1B685BB1204BD7
:1057E0001B686BB91D4B1B68DA6AE36A9A4207D8DB
:1057F0001A4B1C6004E0194B1C601368012B28D065
:10580000184A136801331360E06A01238340164A83
:1058100011680B43136000EB8000211D134B03EB59
:105820008000FFF705FF00F0AFFC0D4B1B687BB15C
:105830000A4B1B68DA6AE36A9A4209D24FF0E02306
:105840004FF08052C3F8042DBFF34F8FBFF36F8F1B
:1058500010BDFFF785FFD3E7D017002038170020D1
:1058600030180020E0170020E41700204417002023
:1058700010B5044690F8513063B1012B11D0022BC2
:105880000ED04FF0500383F31188BFF36F8FBFF337
:105890004F8FFEE7006B00F0C3FB204600F0C0FB1B
:1058A00010BD00F0BDFBFBE70F4B1B68D3B110B57B
:1058B00000F048FC0D4BDB68DC68201DFFF7DCFEC8
:1058C0000B4A1368013B1360074A1368013B1360DE
:1058D00000F05AFC2046FFF7CBFF034B1B68002B60
:1058E000E6D110BD704700BFD41700204818002033
:1058F000D017002008B5FFF7D7FF074B1B68012B17
:10590000F9D94FF0E0234FF08052C3F8042DBFF3D4
:105910004F8FBFF36F8FEEE74417002070B504463A
:105920000D461D4B1E681D4B18680430FFF7A4FE82
:1059300050B91A4B1B68DA6A012303FA02F21849BC
:105940000B6823EA02030B60B4F1FF3F0DD034442F
:10595000124B1B685C60A64210D9124B18680F4BA3
:1059600019680431FFF76FFE70BD002DEFD00B4BAF
:10597000196804310C48FFF75BFEF5E70B4B18681C
:10598000064B19680431FFF75EFE094B1B68A34202
:10599000EAD9074B1C60E7E75C18002038170020A5
:1059A000E417002040170020341800203C17002086
:1059B0001418002030B587B00B9C7CB10C9DB5B19C
:1059C00054250495049D542D1AD04FF0500383F3B1
:1059D0001188BFF36F8FBFF34F8FFEE74FF0500377
:1059E00083F31188BFF36F8FBFF34F8FFEE74FF044
:1059F000500383F31188BFF36F8FBFF34F8FFEE720
:105A00000C9D2C63022485F85140002403940295D8
:105A100005AC01940A9C0094FFF758FE0C98FFF720
:105A2000D3FE059807B030BD2DE9F04385B0074699
:105A3000884614461E46900000F07AFA00B381466C
:105A4000542000F075FA0546B0B1C0F83090E5B1C9
:105A5000002385F85130039302950D9B01930C9B15
:105A600000933346224641463846FFF72FFE28462C
:105A7000FFF7AAFE012005E0484600F0D1FAE6E76C
:105A80004FF0FF3005B0BDE8F0834FF0FF30F9E78D
:105A900010B588B000240594069407AA06A905A8A5
:105AA000FFF7ACFD059B0293069B019300942346F0
:105AB000079A0E490E48FFF77DFF0E4B186090B114
:105AC0004FF0500383F31188BFF36F8FBFF34F8FF5
:105AD000094B4FF0FF321A60084B01221A60084B45
