:020000040800F2
:10000000004001209530000821080008230800085E
:10001000250800082708000829080008000000003B
:100020000000000000000000000000002B08000895
:100030002D080008000000002F0800083108000803
:10004000E5300008E5300008E5300008E53000083C
:10005000E5300008E5300008E5300008E53000082C
:10006000E5300008E5300008E5300008E53000081C
:10007000E5300008E5300008E5300008E53000080C
:10008000E5300008E5300008E5300008E5300008FC
:10009000E5300008E5300008E5300008E5300008EC
:1000A000E5300008E5300008E5300008E5300008DC
:1000B000E5300008E5300008E5300008E5300008CC
:1000C000E5300008E5300008E5300008E5300008BC
:1000D000E5300008E5300008E5300008E5300008AC
:1000E000E5300008E5300008E5300008E53000089C
:1000F000E5300008E5300008E5300008E53000088C
:10010000E5300008E5300008E5300008E53000087B
:10011000E5300008E5300008E5300008E53000086B
:10012000E5300008E5300008E5300008E53000085B
:10013000E53000080000000000000000E530000885
:10014000E5300008E5300008E5300008E53000083B
:10015000E5300008E5300008E5300008E53000082B
:10016000E5300008E5300008E5300008E53000081B
:10017000E5300008E5300008000000000000000045
:04018000E53000085E
:1001840010B5054C237833B9044B13B10448AFF3CD
:1001940000800123237010BD98000020000000009F
:1001A400503A000808B5034B1BB103490348AFF3A9
:1001B400008008BD000000009C000020503A0008A8
:1001C400034613F8012B002AFBD1181A0138704793
:1001D40053B94AB9002908BF00281CBF4FF0FF31AA
:1001E4004FF0FF3000F076B9ADF1080C6DE904CEA4
:1001F40000F006F8DDF804E0DDE9022304B07047FE
:100204002DE9F047089E0D4604468846002B4DD143
:100214008A42944668D9B2FA82F252B101FA02F3E0
:10022400C2F1200120FA01F10CFA02FC41EA0308B0
:1002340094404FEA1C41B8FBF1F71FFA8CFE01FB16
:10024400178807FB0EF0230C43EA084398420AD9A7
:100254001CEB030307F1FF3580F01E81984240F246
:100264001B81023F63441B1AB3FBF1F001FB103303
:1002740000FB0EFEA4B244EA0344A6450AD91CEBD3
:10028400040400F1FF3380F00981A64540F20681A1
:10029400644402380021A4EB0E0440EA07401EB176
:1002A4000023D440C6E90043BDE8F0878B4208D957
:1002B400002E00F0EE800021C6E900050846BDE8E6
:1002C400F087B3FA83F100294AD1AB4202D38242C8
:1002D40000F2FC80841A65EB030301209846002E8B
:1002E400E2D0C6E90048DFE702B9FFDEB2FA82F2E3
:1002F400002A40F09180A1EB0C0001214FEA1C4739
:100304001FFA8CFEB0FBF7F307FB1300250C45EA3C
:1003140000450EFB03F0A84208D91CEB050503F1C8
:10032400FF3802D2A84200F2CE8043462D1AB5FB14
:10033400F7F007FB10550EFB00FEA4B244EA054497
:10034400A64508D91CEB040400F1FF3502D2A645EA
:1003540000F2B6802846A4EB0E0440EA03409EE770
:10036400C1F120078B4022FA07FC4CEA030C25FA62
:1003740007FA4FEA1C49BAFBF9F820FA07F309FB1C
:1003840018AA8D401FFA8CFE1D4300FA01F308FBE6
:100394000EF02C0C44EA0A44A04202FA01F20BD9F2
:1003A4001CEB040408F1FF3A80F08880A04240F27C
:1003B4008580A8F102086444241AB4FBF9F009FB0F
:1003C400104400FB0EFEADB245EA0444A64508D92C
:1003D4001CEB040400F1FF356CD2A6456AD902383F
:1003E400644440EA0840A0FB0295A4EB0E04AC422E
:1003F400C846AE4656D353D0002E69D0B3EB08029C
:1004040064EB0E0422FA01F304FA07F71F43CC400D
:10041400C6E90074002147E70CFA02FCC2F120018E
:1004240025FA01F34FEA1C4720FA01F195400D43E8
:10043400B3FBF7F107FB11331FFA8CFE280C40EADB
:10044400034001FB0EF3834204FA02F408D91CEBC7
:10045400000001F1FF382FD283422DD902396044C4
:10046400C01AB0FBF7F307FB1300ADB245EA004531
:1004740003FB0EF0A84208D91CEB050503F1FF3875
:1004840016D2A84214D9023B6544281A43EA014112
:1004940038E73146304607E72F46E4E61846F9E6E2
:1004A4004B45A9D2B9EB020865EB0C0E0138A3E762
:1004B4004346EAE7284694E74146D1E7D0467BE73E
:1004C4006444023847E7023B65442FE7084606E7E1
:1004D4003146E9E6704700BF2DE9F0418AB00024B7
:1004E4000594069407940894099401942F4B1A6B6D
:1004F40042F080021A631A6B02F080020192019AA0
:1005040002941A6B42F004021A631A6B02F004029A
:100514000292029A03941A6B42F001021A631A6B54
:1005240002F001020392039A04941A6B42F002024D
:100534001A631B6B03F002030493049BDFF87080BF
:10054400224640F2FF31404601F0F8F8194F2246A6
:1005540042F22131384601F0F1F8174E22464FF4A9
:100564000F41304601F0EAF840F2FF3305930125CC
:1005740006950794089405A9404600F0DBFF42F273
:100584002133059306950794089405A9384600F08D
:10059400D1FF4FF40F43059306950794089405A9DA
:1005A400304600F0C7FF0AB0BDE8F08100380240D1
:1005B40000080240000402400000024072B6FEE758
:1005C40000B585B00023009301930293039313486D
:1005D400134A0260436083600361037680F820302D
:1005E400C362104A8262C3600122C26180F8303063
:1005F400426100F0B7FA60B901230093019300232C
:1006040002936946054800F0D9FA20B905B05DF8AF
:1006140004FBFFF7D3FFFFF7D1FF00BFD800002092
:10062400002001400100000F08B50A480A4B03608E
:100634000A4B436000238360C3604FF4804202612D
:1006440043618361C361036201F07EF800B908BDB0
:10065400FFF7B4FF2001002000540040A0860100F1
:1006640008B50D480D4B03604FF4827343600023BB
:100674008360C360036143614FF40072826120228E
:10068400C2610362436283620A23C36201F0DAF93E
:1006940000B908BDFFF792FF74010020003C004040
:1006A40008B50A480A4B03604FF4E1334360002362
:1006B4008360C36003610C2242618361C36101F002
:1006C40081FD00B908BDFFF779FF00BFCC01002010
:1006D4000048004000B593B03022002106A802F083
:1006E4004DFD002301930293039304930593012387
:1006F4000693079302230C934FF480020D92082271
:100704000E92F0220F9210930423119306A800F086
:1007140089FB98B90F2301930223029300230393C7
:100724004FF4A05304934FF480530593032101A87D
:1007340000F0BAFD20B913B05DF804FBFFF73EFFEB
:10074400FFF73CFF00B597B000F02AFBFFF7C2FFAC
:10075400FFF7C2FEFFF734FFFFF766FFFFF780FFE6
:10076400FFF79EFF274C5422211D684602F0DEFC51
:1007740023684FF480724FF40071234802F0A4FB05
:10078400224CEC4604F1100EBEE80F00ACE80F005A
:10079400BEE80F00ACE80F00BEE80F00ACE80F00A5
:1007A400DEF80030CCF8003094E80F0002F05EFC74
:1007B40001F07DFE164BD3E9000101F081FE01201A
:1007C40001F00AFF342001F0A1FE202001F0A8FE70
:1007D400002001F02DFF02F04DF802F027F802F09E
:1007E40073F807E020210B4801F0D3FE4FF47A7030
:1007F40000F002FB2021084801F0C4FF0028F1D1D9
:10080400F4E700BF7401002000080240CC0100207E
:1008140020000020B400002000000020FEE7FEE7D6
:10082400FEE7FEE7FEE770477047704708B500F043
:10083400D1FA08BD82B0002100910B4B5A6C42F4EE
:1008440080425A645A6C02F480420092009A0191E8
:100854001A6C42F080521A641B6C03F080530193AB
:10086400019B02B0704700BF0038024000B589B058
:10087400002303930493059306930793026803F1FB
:10088400804303F590339A4202D009B05DF804FB2B
:100894000021019103F58C335A6C42F480725A643E
:1008A4005A6C02F480720192019A02911A6B42F01E
:1008B40001021A631B6B03F001030293029BFE23E4
:1008C40003930323049303A9014800F033FEDCE7F8
:1008D4000000024030B589B00023039304930593CC
:1008E400069307930268144B9A4201D009B030BDB5
:1008F40000250195114C236B43F002032363236B02
:1009040003F002030193019BC02303931223049376
:10091400032306930423079303A9094800F00AFE5E
:100924000295236C43F400132364236C03F4001333
:100934000293029BDAE700BF0054004000380240F3
:100944000004024000B589B0002303930493059387
:10095400069307930268154B9A4202D009B05DF8DA
:1009640004FB0021019103F5FE331A6C42F40042AA
:100974001A641A6C02F400420192019A02911A6BF1
:1009840042F004021A631B6B03F004030293029BFC
:100994004FF4E053039302230493032306930623A3
:1009A400079303A9024800F0C5FDD7E7003C0040C7
:1009B4000008024000B589B0002303930493059313
:1009C400069307930268154B9A4202D009B05DF86A
:1009D40004FB0021019103F5F8331A6C42F48022E0
:1009E4001A641A6C02F480220192019A02911A6B21
:1009F40042F002021A631B6B03F002030293029B90
:100A04004FF44063039302230493032306930723C1
:100A1400079303A9024800F08DFDD7E70048004082
:100A2400000402404D4B5A6822F440325A605A681E
:100A340041680A435A600268536823F48073536020
:100A440002685368016943EA0123536002685368EA
:100A540023F0407353600268536881680B4353600A
:100A64000268936823F40063936002689368C16822
:100A74000B439360826A3A4B9A425DD00268936852
:100A840023F07063936002689368816A0B439360F8
:100A94000268936823F04053936002689368C16AC4
:100AA4000B4393600268936823F002039360026827
:100AB4009368017E43EA4103936090F82030002B51
:100AC40045D00268536843F4006353600268536876
:100AD40023F460435360436A013B4FF4604292FA4B
:100AE400A2F2B2FA82F2934001684A6813434B605F
:100AF4000268D36A23F47003D3620168CB6AC269C3
:100B0400013A43EA0253CB620268936823F4007308
:100B140093600268936890F8301043EA412393602D
:100B24000268936823F48063936002689368416960
:100B340043EA8123936070470268936823F07063EB
:100B440093600268936823F040539360AAE70268B5
:100B5400536823F400635360CAE700BF00230140D5
:100B64000100000F38B310B50446036C43B1236C85
:100B740013F0100F0BD00120002384F83C3010BD7B
:100B8400FFF774FE0023636484F83C30EFE7236CC2
:100B940023F4885323F0020343F002032364204622
:100BA400FFF740FF00206064236C23F0030343F04D
:100BB40001032364E0E701207047000030B482B0F1
:100BC4000023019390F83C30012B00F0BB800123FB
:100BD40080F83C300B68092B41D90468E2689BB269
:100BE40003EB43031E3B4FF0070C0CFA03F322EA1A
:100BF4000303E3600468E2680B8803EB43031E3BD2
:100C04008D6805FA03F31343E3604B68062B3DD864
:100C14000468626B03EB8303053B4FF01F0C0CFA73
:100C240003F322EA030363630468626B4B6803EB18
:100C34008303053BB1F800C00CFA03F31343636369
:100C44000268414B9A4251D002683F4B9A4256D0B7
:100C5400002380F83C30184602B030BC704704686A
:100C640022699BB203EB43034FF0070C0CFA03F326
:100C740022EA03032361046822690B8803EB43031C
:100C84008D6805FA03F313432361BEE70C2B16D8D2
:100C940005682A6B03EB8303233B1F2404FA03F345
:100CA40022EA03032B6305682A6B4B6803EB830377
:100CB400233B0C8804FA03F313432B63C0E7056852
:100CC400EA6A03EB8303413B1F2404FA03F322EA99
:100CD4000303EB620568EA6A4B6803EB8303413B59
:100CE4000C8804FA03F31343EB62A9E70B68122B95
:100CF400AAD1164A536843F480035360A4E70B68EF
:100D0400103B012BA4D8114A536843F400035360E9
:100D14000B68102B9CD10E4B1B6802F1467202F536
:100D24002E3202F28332A2FB03239B0C03EB8303D8
:100D34005B00019302E0019B013B0193019B002BAB
:100D4400F9D185E7022087E7002001400023014014
:100D54003000002010B504460E4B18784FF47A7317
:100D6400B3FBF0F30C4A1068B0FBF3F000F0CEFBD9
:100D740068B90F2C01D901200AE0002221464FF066
:100D8400FF3000F08BFB054B1C60002000E00120CD
:100D940010BD00BF28000020300000202C000020DF
:100DA40008B50B4B1A6842F400721A601A6842F4D0
:100DB40080621A601A6842F480721A60032000F09C
:100DC4005BFB0F20FFF7C6FFFFF734FD002008BDD3
:100DD400003C0240034A1168034B1B780B44136028
:100DE400704700BF1002002028000020014B186843
:100DF400704700BF1002002030B583B00190FFF7A8
:100E0400F5FF0546019CB4F1FF3F02D0044B1B786B
:100E14001C44FFF7EBFF401BA042FAD303B030BDE4
:100E240028000020002800F0BB8170B582B0044681
:100E3400036813F0010F2ED0934B9B6803F00C034F
:100E4400042B1FD0904B9B6803F00C03082B14D089
:100E540022798D4B9A706368002B40D0FFF7C6FF50
:100E64000546894B1B6813F4003F14D1FFF7BEFFFE
:100E7400401B6428F5D9032099E1834B5B6813F484
:100E8400800FE5D0804B1B6813F4003F03D06368E8
:100E9400002B00F08781236813F0020F4AD07A4BAD
:100EA4009B6813F00C0F2ED0774B9B6803F00C0358
:100EB400082B23D0E368002B64D0744B01221A6002
:100EC400FFF794FF0546704B1B6813F0020F4AD1DD
:100ED400FFF78CFF401B0228F5D9032067E1FFF7D9
:100EE40085FF0546684B1B6813F4003FD3D0FFF71A
:100EF4007DFF401B6428F5D9032058E1624B5B68F1
:100F040013F4800FD6D1604B1B6813F0020F03D08B
:100F1400E368012B40F048815B48036823F0F80341
:100F24002169F82292FAA2F2B2FA82F201FA02F2EA
:100F340013430360236813F0080F48D063699BB31D
:100F4400524B0122C3F8802EFFF750FF05464E4B4B
:100F54005B6F13F0020F3AD1FFF748FF401B0228E2
:100F6400F5D9032023E14848036823F0F8032169F5
:100F7400F82292FAA2F2B2FA82F201FA02F21343CE
:100F84000360D7E7414B00221A60FFF72FFF0546A5
:100F94003D4B1B6813F0020FCCD0FFF727FF401B1B
:100FA4000228F5D9032002E1384B0022C3F8802E31
:100FB400FFF71CFF0546344B5B6F13F0020F06D09E
:100FC400FFF714FF401B0228F5D90320EFE0236844
:100FD40013F0040F5FD02C4B1B6C13F0805F2CD1EB
:100FE40000230193284B1A6C42F080521A641B6C44
:100FF40003F080530193019B0125254B1A6842F4A9
:1010040080721A601B6813F4807F18D0227A1E4BFA
:1010140083F87020A36833B3FFF7E8FE06461A4B43
:101024001B6F13F0020F35D1FFF7E0FE801B41F276
:1010340088339842F3D90320B9E00025DDE7144A48
:10104400136843F480731360FFF7D0FE0646104B19
:101054001B6813F4807FD9D1FFF7C8FE801B0228D8
:10106400F5D90320A3E0FFF7C1FE0646064B1B6F2C
:1010740013F0020F0ED0FFF7B9FE801B41F2883344
:101084009842F3D9032092E000380240000047421E
:1010940000700040EDB9A369002B00F087804B4A33
:1010A400926802F00C02082A5BD0022B17D0484B3E
:1010B40000221A66FFF79AFE0446444B1B6813F09D
:1010C400007F4CD0FFF792FE001B6428F5D9032063
:1010D4006DE03E4A136C23F080531364DBE73C4B12
:1010E40000221A66FFF782FE0546384B1B6813F090
:1010F400007F06D0FFF77AFE401B6428F5D9032051
:1011040055E03248426822F0746222F45F3222F4DD
:101114007F7222F00302E369216A0B43616A43EAA6
:101124008113E16A43EA0163A16A4908013943EA88
:10113400014313434360264B01221A66FFF756FE10
:101144000446224B1B6813F0007F06D1FFF74EFEC6
:10115400001B6428F5D9032029E0002027E00020A3
:1011640025E0012B25D0194B5B6803F48001E2696B
:10117400914220D103F03F02216A8A421DD1C3F378
:101184008812616A8A421AD103F44032A16A8A42FF
:1011940017D103F07063E26A934214D1002006E091
:1011A40001207047012002E0012000E0002002B08D
:1011B40070BD0120FBE70120F9E70120F7E70120DA
:1011C400F5E70120F3E70120F1E700BF0038024012
:1011D4000000474208B5314B9B6803F00C03042B15
:1011E40057D0082B57D12D4B5A6802F03F025B6849
:1011F40013F4800F2AD0294B5968C1F3881C4FEA95
:101204004C11B1EB0C006EEB0E0E4FEA8E1343EA59
:1012140090638101091A63EB0E03DB0043EA517307
:10122400C90011EB0C0C43F10003590200234FEAEF
:101234004C2041EADC51FEF7CBFF184B5B68C3F34B
:10124400014301335B00B0FBF3F025E0134B596815
:10125400C1F3881C4FEA4C11B1EB0C006EEB0E0E7F
:101264004FEA8E1343EA90638101091A63EB0E037C
:10127400DB0043EA5173C90011EB0C0C43F100038A
:10128400990200234FEA8C2041EA9C51FEF7A0FF0B
:10129400D3E7034800E0034808BD00BF003802401C
:1012A40000127A000024F400002800F0A08070B539
:1012B4000D460446524B1B6803F00F038B4208D2C1
:1012C400CBB24F4A1370136803F00F038B4240F004
:1012D4009080236813F0020F17D013F0040F04D08A
:1012E400484A936843F4E0539360236813F0080F6B
:1012F40004D0444A936843F460439360414A93683A
:1013040023F0F003A1680B439360236813F0010FEB
:1013140031D06368012B20D0022B25D0394A1268C2
:1013240012F0020F67D037498A6822F00302134390
:101334008B60FFF75BFD0646324B9B6803F00C03A2
:101344006268B3EB820F16D0FFF750FD801B41F2A9
:1013540088339842F0D9032048E02A4A126812F4EC
:10136400003FE0D1012041E0264A126812F0007FDC
:10137400D9D101203AE0224B1B6803F00F03AB42A2
:1013840007D9EAB21E4B1A701B6803F00F03AB4275
:1013940033D1236813F0040F06D01A4A936823F458
:1013A400E053E1680B439360236813F0080F07D000
:1013B400144A936823F46043216943EAC1039360A8
:1013C400FFF708FF0F4B9B6803F0F003F02292FA3B
:1013D400A2F2B2FA82F2D3400B4AD35CD8400B4B50
:1013E40018600B4B1868FFF7B5FC002070BD012096
:1013F40070470120FAE70120F8E70120F6E700BF73
:10140400003C024000380240683A000830000020E6
:101414002C000020014B1868704700BF30000020EA
:1014240008B5FFF7F7FF074B9B6803F4E0534FF44D
:10143400E05292FAA2F2B2FA82F2D340024AD35CA8
:10144400D84008BD00380240783A000808B5FFF7D4
:10145400E1FF074B9B6803F460434FF4604292FA48
:10146400A2F2B2FA82F2D340024AD35CD84008BD59
:1014740000380240783A0008074AD36823F4E0634E
:101484001B041B0C000200F4E060034343F0BF6341
:1014940043F40033D360704700ED00E000B5194B0E
:1014A400DB68C3F30223C3F1070CBCF1040F28BFAC
:1014B4004FF0040C03F1040EBEF1060F18D9033BE0
:1014C4004FF0FF3E0EFA0CFC21EA0C0199400EFA93
:1014D40003F322EA0303194300280BDB0901C9B211
:1014E40000F1604000F5614080F800135DF804FBF2
:1014F4000023E5E700F00F000901C9B2024B1954BB
:10150400F4E700BF00ED00E014ED00E00138B0F1B5
:10151400807F0BD24FF0E0235861054AF02182F816
:1015240023100020986107221A6170470120704738
:1015340000ED00E070B582B0002365E085685E00D0
:101544000324B44025EA0405CC68B4402C438460E9
:10155400446824EA0C0C4C68C4F300149C4044EA2C
:101564000C04446062E0DD08083550F8256003F09F
:1015740007044FEA840C0F2404FA0CF426EA040E40
:101584000C6904FA0CF444EA0E0440F8254064E0C3
:10159400082400E0002404FA0EF42C430CF1020C9D
:1015A400624D45F82C40624C2568D44325EA020676
:1015B400D1F804C01CF4803F01D042EA05065C4D1A
:1015C4002E606D6804EA0506D1F804C01CF4003FDF
:1015D40001D042EA0506564D6E60AD6804EA050680
:1015E400D1F804C01CF4801F01D042EA0506504D16
:1015F400AE60ED682C404E6816F4001F01D042EA3C
:1016040005044B4AD46001330A6832FA03F400F04B
:101614008A804FF0010C0CFA03FC1CEA0202F2D09F
:101624004C6804F00304013C012C87D94C6804F095
:101634000304032C0CD0C4685D004FF0030C0CFAB7
:1016440005FC24EA0C0C8C68AC4044EA0C04C4602D
:101654004C6804F00304022C85D004684FEA430E5E
:101664004FF0030C0CFA0EFC24EA0C0C4C6804F04A
:10167400030404FA0EF444EA0C0404604C6814F401
:10168400403FC0D0002401942A4C656C45F4804549
:101694006564646C04F480440194019C4FEA930CE7
:1016A4000CF10205214C54F8255003F003044FEAD1
:1016B400840E0F2404FA0EF425EA04051E4CA042FD
:1016C4003FF468AF04F58064A0421ED004F5806442
:1016D400A0421CD004F58064A0421AD004F58064B2
:1016E400A04218D004F58064A04216D004F58064AA
:1016F400A04214D004F58064A04212D004F58064A2
:10170400A0423FF445AF092445E7012443E70224FE
:1017140041E703243FE704243DE705243BE706248F
:1017240039E7072437E702B070BD00BF0038014035
:10173400003C014000380240000002400AB18161CF
:101744007047090481617047002800F0CC8070B5AF
:10175400044690F83D30002B77D0242384F83D30A4
:101764002268136823F0010313602268136843F4AA
:10177400004313602268136823F400431360FFF7E7
:101784004FFE62685A4B9A4264D85A4B98428CBFB7
:1017940000230123002B40F0A8805749A1FB00310E
:1017A4008B0C25686A6822F03F0242EA91426A6023
:1017B40021680A6A22F03F0266684D4DAE424FD856
:1017C400013313430B622168CA6922F44F4222F0A9
:1017D400FF026668464B9E424CD8431E7600B3FB1C
:1017E400F6F3013340F6FC70034278D0C3F30B03E5
:1017F4001343CB6121680B6823F0C003E269206ABC
:10180400024313430B6021688B6823F4034323F0E2
:10181400FF032269E068024313438B602168CB68AD
:1018240023F0FF036269A06902431343CB6022687B
:10183400136843F00103136000202064202384F81C
:101844003D30206384F83E0070BD80F83C30FFF7E3
:1018540041F882E7294B98428CBF0023012399E782
:101864004FF4967505FB03F3254DA5FB03539B0924
:101874000133A6E7A368BBB9451E06EB460CB5FBCE
:10188400FCF50135C5F30B05B5FA85F56D0945BBC6
:10189400C3B9013806EB4603B0FBF3F30133C3F3DA
:1018A4000B0343F40043A3E7451E06EB860C0CEB45
:1018B4008C0CB5FBFCF50135C5F30B05B5FA85F5C4
:1018C4006D09E4E7013806EB860303EB8303B0FB01
:1018D400F3F30133C3F30B0343F4404388E70423D6
:1018E40086E7012384E7012070470120ACE700BFAD
:1018F400A08601007F841E0083DE1B43FF083D0099
:10190400D34D62102DE9F04782B00546884617464C
:101914001E46FFF76BFA0A9B1B1A03EB0609FFF737
:1019240065FA82462B4B1B68C3F3CB3309FB03F3E5
:1019340001932B689C6838EA04030CBF4FF0010C38
:101944004FF0000CBC4540D0B6F1FF3FF1D0FFF79B
:101954004DFAA0EB0A0048450AD2B9F1000F07D0AE
:10196400019A02B14A46019B013B01939146E0E78B
:101974002A68536823F0E00353606B68B3F5827FF1
:101984000BD0AB6AB3F5005F14D0012385F8513056
:10199400002385F85030032018E0AB68B3F5004FFE
:1019A40002D0B3F5806FECD12A68136823F04003AA
:1019B4001360E6E72A68136823F4005313602A6867
:1019C400136843F400531360DFE7002002B0BDE85E
:1019D400F08700BF3000002010B582B004460B46EB
:1019E400009200228021FFF78DFF08B902B010BDDC
:1019F400636D43F0200363650320F7E710B582B0FD
:101A040004460B464168B1F5827F08D0009200225B
:101A140080212046FFF776FF70B902B010BD8168BF
:101A2400B1F5004F02D0B1F5806FEFD120680168A5
:101A340021F040010160E9E7636D43F02003636531
:101A44000320EAE700285AD010B50446436A33B9A4
:101A54004368B3F5827F05D00023C36102E000230D
:101A6400036143610023A36294F85130002B40D0FA
:101A7400022384F851302268136823F04003136072
:101A8400636803F48273A26802F404421343E268B5
:101A940002F400621343226902F0020213436269F2
:101AA40002F001021343A26902F400721343E269D3
:101AB40002F038021343226A02F080021343A26A3E
:101AC40002F40052216813430B60638B03F0040398
:101AD400626A02F01002216813434B602268D369E2
:101AE40023F40063D36100206065012384F851303E
:101AF40010BD84F850302046FEF724FFB8E70120DB
:101B040070472DE9F04383B01D4690F85030012B07
:101B140000F0D180044688469146012380F8503075
:101B2400FFF764F9074694F85160F6B2012E40F0CD
:101B3400AF80B8F1000F00F0AC80B9F1000F00F0F5
:101B4400A880032384F8513000236365C4F83080EF
:101B5400A4F83490A4F83690A363A387E38763645E
:101B64002364A368B3F5004F1ED023681A6812F0EB
:101B7400400F03D11A6842F040021A60E368B3F5DB
:101B8400006F1CD0636813B1B9F1010F52D1226BFD
:101B9400236812781A73236B01332363E38E9BB299
:101BA400013B9BB2E38645E02268136823F04003BF
:101BB40013602268136843F480431360D5E76368B5
:101BC40013B1B9F1010F16D1226B23681288DA60C0
:101BD400236B02332363E38E9BB2013B9BB2E38608
:101BE40009E0FFF703F9C01BA84202D3B5F1FF3F98
:101BF40059D1002D59D0E38E9BB2002B33D02368EA
:101C04009A6812F0020FECD0226B1288DA60236B10
:101C140002332363E38E9BB2013B9BB2E386EAE784
:101C2400FFF7E4F8C01BA84202D3B5F1FF3F3ED151
:101C3400002D3ED0E38E9BB2ABB123689A6812F0BC
:101C4400020FEDD0226B12781A73236B01332363D6
:101C5400B4F836C01FFA8CFC0CF1FF3C1FFA8CFC64
:101C6400A4F836C0E6E73A4629462046FFF7B4FE14
:101C740008B120236365A36833B901932368DA6844
:101C840001929B680193019B636D13B9002600E0E8
:101C94000226012384F85130002384F85030304662
:101CA40003B0BDE8F0830326F3E70326F1E7032638
:101CB400EFE70326EDE70226F1E72DE9F04383B0D1
:101CC4001F460A9D90F85030012B00F01081044605
:101CD40088469146012380F85030FFF787F806467E
:101CE40094F85130DBB26268012B0AD0B2F5827FDE
:101CF40040F0E380A268002A40F0E980042B40F021
:101D0400E880B8F1000F00F0E680B9F1000F00F0B0
:101D1400E480002F00F0E38094F85130DBB2042B10
:101D240002D0052384F8513000236365C4F8389049
:101D3400E787A787C4F83080E786A78623646364AF
:101D440023681A6812F0400F03D11A6842F0400267
:101D54001A60E368B3F5006F11D063680BB1012F0B
:101D64000BD1226B236812781A73236B013323631C
:101D7400E38E9BB2013B9BB2E38601276BE0636871
:101D84000BB1012F0BD1226B23681288DA60236B0D
:101D940002332363E38E9BB2013B9BB2E3860127AC
:101DA4001CE023689A6812F0010F0ED0E28F92B201
:101DB4005AB1DA68A36B1A80A36B0233A363E38F6F
:101DC4009BB2013B9BB2E3870127FFF70FF8801B0F
:101DD400A84203D3B5F1FF3F40F08380E38E9BB26A
:101DE4001BB9E38F9BB2002B53D023689A6812F07F
:101DF400020FD6D0E28E92B2002AD2D0002FD0D0D9
:101E0400226B1288DA60236B02332363E38E9BB266
:101E1400013B9BB2E3860027C3E723689A6812F06C
:101E2400010F0ED0E28F92B25AB1DA68A36B1A7026
:101E3400A36B0133A363E38F9BB2013B9BB2E387A4
:101E44000127FEF7D3FF831BAB4202D3B5F1FF3F5B
:101E540049D1002D49D0E38E9BB213B9E38F9BB2D5
:101E6400BBB123689A6812F0020FD6D0E28E92B208
:101E7400002AD2D0002FD0D0226B12781A73236B91
:101E840001332363E38E9BB2013B9BB2E3860027BD
:101E9400C3E7324629462046FFF79EFD48B9A368AA
:101EA40063B901932368DA6801929B680193019BEB
:101EB40004E020236365012000E00220012384F86C
:101EC4005130002384F8503003B0BDE8F083022081
:101ED400F4E70220F2E70120F0E70120EEE7012019
:101EE400ECE70320EAE70320E8E70320E6E7022023
:101EF400EAE72DE9F04383B00446884691461D463F
:101F04004068B0F5827F38D094F85030012B00F04F
:101F1400AE80012384F85030FEF768FF074694F83A
:101F24005160F6B2012E40F08F80B8F1000F00F03E
:101F34008C80B9F1000F00F08880042384F85130BC
:101F440000236365C4F83880A4F83C90A4F83E905C
:101F54002363A386E38623646364A368B3F5004F15
:101F640019D023681A6812F0400F03D11A6842F09E
:101F740040021A60E3681BB341E0A368002BC3D19D
:101F8400042384F85130009513460A462046FFF78F
:101F940094FE06465FE02268136823F04003136052
:101FA4002268136823F480431360DAE7FEF71EFF08
:101FB400C01BA84202D3B5F1FF3F50D1002D50D031
:101FC400E38F9BB2002B33D023689A6812F0010F81
:101FD400ECD0A26B1B7B1370A36B0133A363E38F61
:101FE4009BB2013B9BB2E387EAE7FEF7FFFEC01B0F
:101FF400A84202D3B5F1FF3F35D1002D35D0E38F90
:102004009BB2ABB123689A6812F0010FEDD0DA6885
:10201400A36B1A80A36B0233A363B4F83EC01FFA08
:102024008CFC0CF1FF3C1FFA8CFCA4F83EC0E6E7E4
:102034003A4629462046FFF7E1FC08B120236365B0
:10204400636D13B9002600E00226012384F85130A1
:10205400002384F85030304603B0BDE8F0830326F3
:10206400F3E70326F1E70326EFE70326EDE702266D
:10207400F1E7000038B504460268136923F44053BD
:10208400C1680B43136183680269134342691343B4
:10209400C2691A430168CB6823F4164323F00C0386
:1020A4001343CB600268536923F4407381690B4383
:1020B40053610368264A934206D002F58062934234
:1020C40002D0FFF7ADF901E0FFF7C0F9E369B3F51A
:1020D400004F1DD000EB800202EB8202606880009A
:1020E400B2FBF0F21B48A0FB02314909642303FB55
:1020F40011231B013233A0FB03235B0903F0F0021D
:1021040002EB011203F00F03216813448B6038BD06
:1021140000EB800000EB800063685B00B0FBF3F031
:102124000C4DA5FB00325109642303FB1103DB00B2
:102134003233A5FB03235B095A0002F4F87202EB65
:10214400011203F00703216813448B60DFE700BF2B
:10215400001001401F85EB512DE9F84305460F4659
:1021640016469946DDF820802C68246837EA040373
:102174000CBF4FF0010C4FF0000CB4451FD1B8F167
:10218400FF3FF1D0B8F1000F05D0FEF72FFEA0EB12
:1021940009004045E8D92A68D36823F4D073D36092
:1021A4002A68536923F001035361202385F83D30E5
:1021B40085F83E30002385F83C30032000E0002001
:1021C400BDE8F88358B310B5044690F83D300BB31E
:1021D400242384F83D302268D36823F40053D36069
:1021E4002046FFF747FF2268136923F490431361E5
:1021F4002268536923F02A0353612268D36843F4A5
:102204000053D36000202064202384F83D3084F8F8
:102214003E3010BD80F83C30FEF7CCFBD8E70120FF
:1022240070472DE9F04182B01E4690F83D30DBB294
:10223400202B54D104460D469046002953D0002A41
:1022440053D090F83C30012B51D0012380F83C301E
:1022540000230364212380F83D30FEF7C7FD0746C1
:10226400A4F82480A4F82680A368B3F5805F05D081
:102274004FF00008002384F83C3012E0236913B1C6
:102284004FF00008F6E7A8460025F3E738F8023BCC
:102294002268C3F308035360E28C92B2013A92B20B
:1022A400E284E38C9BB273B100963B46002280210A
:1022B4002046FFF751FFE0B9002DE7D015F8012BB8
:1022C40023685A60E8E700963B46002240212046F6
:1022D400FFF742FF78B9202384F83D3000E0022064
:1022E40002B0BDE8F0810120FAE70120F8E70220FE
:1022F400F6E70320F4E70320F2E7704708B538B1A6
:102304000122074B1988074B1868FFF717FA08BD15
:102314000022034B1988034B1868FFF70FFAF6E7FE
:102324001A0200201C02002008B538B10122074B14
:102334001988074B1868FFF701FA08BD0022034B00
:102344001988034B1868FFF7F9F9F6E7180200201B
:102354001C02002010B582B004460020FFF7CEFF17
:1023640004F01F048DF804400A4C6423012201A9DF
:102374002046FFF7C6FB642301220DF10501204628
:10238400FFF7B7FD9DF805400120FFF7B7FF204692
:1023940002B010BD2002002070B582B004460D4684
:1023A40016460020FFF7AAFF04F01F048DF804402E
:1023B400084C6423012201A92046FFF7A2FB6423F1
:1023C400324629462046FFF794FD0120FFF796FF89
:1023D40002B070BD2002002030B583B004460D4623
:1023E4000020FFF78BFF44F020048DF804408DF8A3
:1023F40005506423022201A90348FFF782FB012050
:10240400FFF77CFF03B030BD2002002070B582B01E
:1024140004460D4616460020FFF770FF44F02004E2
:102424008DF80440084C6423012201A92046FFF7DB
:1024340068FB6423324629462046FFF762FB0120ED
:10244400FFF75CFF02B070BD2002002070B582B0BF
:1024540004460D460020FFF751FFA0238DF80730F6
:10246400094E642301220DF107013046FFF749FBB1
:1024740064232A4621463046FFF743FB0120FFF739
:102484003DFF02B070BD00BF2002002008B5FF214F
:10249400E120FFF7A1FF08BD08B5FF21E220FFF707
:1024A4009BFF08BD08B50720FFF754FF08BD08B51A
:1024B4000020FFF739FFFFF7E9FFFFF7EDFF08BD45
:1024C40000B583B0CDE90001052269460A20FFF773
:1024D4009DFF052269461020FFF798FF054B1978E8
:1024E400202928BF20211120FFF776FF03B05DF8D3
:1024F40004FB00BFBC02002008B501F00F0141EA53
:102504000011C9B20420FFF767FF08BD08B50146F2
:102514007F2828BF7F210520FFF75EFF08BD00004C
:10252400202828BF2020014B18707047BC020020CF
:10253400014B1878704700BFBC02002070B582B010
:1025440006460D46FFF7F4FF0446A84200D92C4680
:102554000020FFF7D3FE61238DF80730094D642373
:1025640001220DF107012846FFF7CBFA6423A2B23A
:1025740031462846FFF7BDFC0120FFF7BFFE02B03D
:1025840070BD00BF2002002008B56020FFF7E2FE06
:1025940008BD10B5FFF7D2FF1720FFF7DBFE00F0F0
:1025A4000104FFF779FFFFF7EFFF204610BD00009D
:1025B40008B51D20FFF7CEFE00F0FB011D20FFF73C
:1025C4000BFF00211C20FFF707FF024B00221A70AB
:1025D40008BD00BF1602002008B520B13F2101202C
:1025E400FFF7FAFE08BD00210120FFF7F5FEF9E729
:1025F40010B504460620FFF7ADFE00F0F901032CE8
:1026040009D0022C0DD0012C0ED034B1042C04D1ED
:1026140041F0060101E041F006010620FFF7DCFE6F
:1026240010BD41F00401F8E741F00201F5E70000B4
:1026340038B505460620FFF78DFE124B00221A70AE
:1026440000F0D704022D11D0012D13D00D4B002220
:102654001A7021460620FFF7BFFE0620FFF77AFE18
:10266400A0420DD00020074B187038BD1A7044F0FA
:102674002004EEE7034B01221A7044F00804E8E753
:102684000120F2E7BD02002010B504460020FFF748
:1026940061FE00F0F3011CB1012C05D041F00C01E6
:1026A4000020FFF799FE10BD41F00801F8E708B5D6
:1026B4000020FFF74FFE00F0FD010020FFF78CFE25
:1026C40008BD70B50546FFF7EDFE00F04003002B92
:1026D40014BF012600260BD0044615B1C0F34203F3
:1026E4002B7040210720FFF777FE14F0200F01D153
:1026F400304670BD20210720FFF76EFEF8E708B5CD
:102704000020FFF7DEFF08BD38B504460D46002063
:10271400FFF70AFE0020FFF71DFE20F0010343F03F
:10272400020303F0FE010020FFF756FE0120FFF72D
:10273400FBFD29462046FFF789FE0120FFF7F4FD43
:102744000020FFF7F1FD38BDF8B505460F461646E3
:10275400FFF7A8FE044600232B7070210720FFF723
:102764003BFEC4F340132B70C4F300133B70C4F35B
:1027740080143470F8BD08B570210720FFF72CFED3
:1027840008BD000030B583B004460D46FFF7F3FFE3
:1027940029462046FFF7B8FFFEF728FB044601222E
:1027A4000DF107010820FFF7F7FDFFF77BFE10F09E
:1027B400300F04D1FEF71AFB001B0928EFD90C4C8B
:1027C40022460DF105010DF10600FFF7BDFF9DF84E
:1027D4000650237833B9FFF792FFFFF757FE2846D8
:1027E40003B030BDFFF7D0FE024B1870F3E700BF13
:1027F400140200201502002000B583B00020FFF76A
:102804007DFD50238DF8043073238DF80530642347
:10281400022201A90448FFF774F90120FFF76EFDB5
:1028240003B05DF804FB00BF2002002008B51D20A2
:10283400FFF790FD40F00601C9B21D20FFF7CCFD63
:102844001D20FFF787FD48B11C20FFF783FD40F0F2
:102854000301C9B21C20FFF7BFFD08BDFFF7CCFF81
:102864001D20FFF777FD40F00601C9B21D20FFF7D8
:10287400B3FDE9E708B51D20FFF76CFD40F0040146
:10288400C9B21D20FFF7A8FD1D20FFF763FD60B14D
:102894001C20FFF75FFD40F03F01C9B21C20FFF789
:1028A4009BFD084B01221A7008BDFFF7A5FF1D20F0
:1028B400FFF750FD40F00401C9B21D20FFF78CFD65
:1028C400E6E700BF1602002070B5A0B00DF11C0CA5
:1028D400C44C0FCCACE80F000FCCACE80F000FCC0D
:1028E400ACE80F0023682CF8023B1B0C8CF800307A
:1028F40007A8FDF765FC0A2382B207A9BA48FFF7C7
:1029040090FC0020FFF726FD10F0080F00F067820E
:1029140010F0040F00F0578207ACB44D0FCD0FC474
:1029240095E8070084E8070007A8FDF749FCAE4CCA
:102934000A2382B207A92046FFF773FC0120FFF7A0
:1029440009FDC0F340130393C0F300130293C0F3D3
:10295400C0030193C0F380030093C0F3400300F06D
:102964000102A34907A800F011FC07A8FDF728FC01
:102974000A2382B207A92046FFF753FC0220FFF77F
:10298400E9FCC0F340130393C0F300130293C0F3B4
:10299400C0030193C0F380030093C0F3400300F02D
:1029A4000102944907A800F0F1FB07A8FDF708FC11
:1029B4000A2382B207A92046FFF733FC0320FFF75E
:1029C400C9FC00F0030202328B4907A800F0DEFBC9
:1029D40007A8FDF7F5FB0A2382B207A92046FFF7F3
:1029E40020FC0520FFF7B6FC00F07F02834907A80E
:1029F40000F0CCFB07A8FDF7E3FB0A2382B207A98A
:102A04002046FFF70EFC0620FFF7A4FC044610F056
:102A1400080F00F0EB810DF11C0C794D0FCDACE8E3
:102A24000F0095E803004CF8040B2CF8021B090C6A
:102A34008CF8001007A8FDF7C3FB0A2382B207A98C
:102A44006948FFF7EEFBC4F3410314F0060F00F0EE
:102A5400DD81012B00F0E181022B00F0E581032BE5
:102A640000F0EC8107A8FDF7ABFB5F4C0A2382B2B0
:102A740007A92046FFF7D5FB052205A90A20FFF781
:102A84008BFC9DF816309DF815209DF814100291CA
:102A9400019200939DF817309DF81820594907A812
:102AA40000F074FB07A8FDF78BFB0A2382B207A989
:102AB4002046FFF7B6FB052205A90B20FFF76CFCA7
:102AC4009DF816309DF815209DF81410029101927E
:102AD40000939DF817309DF818204B4907A800F083
:102AE40055FB07A8FDF76CFB0A2382B207A9204611
:102AF400FFF797FB012205A90C20FFF74DFC9DF879
:102B04001420424907A800F041FB07A8FDF758FB31
:102B14000A2382B207A92046FFF783FB012205A9F5
:102B24000D20FFF739FC9DF81420394907A800F05F
:102B34002DFB07A8FDF744FB0A2382B207A9204610
:102B4400FFF76FFB012205A90E20FFF725FC9DF876
:102B54001420304907A800F019FB07A8FDF730FB43
:102B64000A2382B207A92046FFF75BFB012205A9CD
:102B74000F20FFF711FC9DF81420274907A800F047
:102B840005FB07A8FDF71CFB0A2382B207A9204610
:102B9400FFF747FB052205A91020FFF7FDFB9DF871
:102BA40016309DF815209DF814100291019200939F
:102BB4009DF817309DF81820184907A800F0E6FA88
:102BC40007A8FDF7FDFA0A2382B207A92046FFF7FA
:102BD40028FB1120FFF7BEFB00F03F02104907A8B5
:102BE40020E000BF803A000878020020B43A0008D0
:102BF400003B0008443B0008903B0008AC3B000845
:102C0400C03B0008403C0008703C0008A03C0008A1
:102C1400C83C0008F03C0008183D0008403D00088E
:102C24006C3D000800F0B2FA07A8FDF7C9FA0A23C0
:102C340082B207A92046FFF7F4FA1220FFF78AFBB5
:102C440000F03F028D4907A800F0A0FA07A8FDF79D
:102C5400B7FA0A2382B207A92046FFF7E2FA132043
:102C6400FFF778FB00F03F02854907A800F08EFAD1
:102C740007A8FDF7A5FA0A2382B207A92046FFF7A1
:102C8400D0FA1420FFF766FB00F03F027D4907A845
:102C940000F07CFA07A8FDF793FA0A2382B207A989
:102CA4002046FFF7BEFA1520FFF754FB00F03F0261
:102CB400754907A800F06AFA07A8FDF781FA0A2304
:102CC40082B207A92046FFF7ACFA1620FFF742FBB1
:102CD40000F03F026D4907A800F058FA07A8FDF775
:102CE4006FFA0A2382B207A92046FFF79AFA1C203A
:102CF400FFF730FBC0F340130393C0F300130293B8
:102D0400C0F3C0030193C0F380030093C0F34003F6
:102D140000F001025E4907A800F038FA07A8FDF7A1
:102D24004FFA0A2382B207A92046FFF77AFA1D2038
:102D3400FFF710FB054610F0040F00F0868007AC87
:102D4400544E0FCE0FC496E8030044F8040B2180C0
:102D540007A8FDF735FA0A2382B207A94E48FFF700
:102D640060FA15F0020F7DD007AC4C4D0FCD0FC4A7
:102D740095E8070003C4228007A8FDF721FA464D11
:102D84000A2382B207A92846FFF74BFA0DF11C0C5F
:102D9400434C0FCCACE80F000FCCACE80F000FCCC9
:102DA400ACE80F0023682CF8023B1B0C8CF80030B5
:102DB40007A8FDF705FA0A2382B207A92846FFF7F8
:102DC40030FA20B070BD07AC364D0FCD0FC495E876
:102DD400070003C424F8022B120C2270A4E507ACEC
:102DE400314D0FCD0FC42B6823609DE50DF11C0CF4
:102DF4002E4D0FCDACE80F0095E803004CF8040B02
:102E04002CF8021B090C8CF8001013E607AC284DB3
:102E14000FCD0FC42B68236024E607AC254D0FCDDE
:102E24000FC42B6823601DE607AC234D0FCD0FC4E0
:102E34002B6824F8023B1B0C237013E607AC1F4DD0
:102E44000FCD0FC42B6823800CE607AC1C4E0FCEAD
:102E54000FC496E8030044F8040B24F8021B090C81
:102E6400217075E707AC174D0FCD0FC495E8070027
:102E740003C424F8022B120C22707DE7883D00085D
:102E8400A43D0008C03D0008DC3D0008F83D0008F2
:102E9400143E0008603E000878020020903E0008BE
:102EA400803A0008D03A0008EC3A0008D83B000801
:102EB400F03B0008043C0008183C00082C3C0008C7
:102EC400783E0008AC3E000882B070B582B0064679
:102ED4000D46144606A941F8043F58225F4800F005
:102EE40025F95F4B1E605F4B1D805F4B1C800120EA
:102EF400FFF704FA0020FFF717FA0520FDF77CFF1F
:102F040008210020FFF768FA3F210120FFF764FA47
:102F140003210220FFF760FA03210846FFF75CFA59
:102F240003210420FFF758FA02210520FFF754FA81
:102F34000F210620FFF750FA0E210720FFF74CFA65
:102F440000210820FFF748FA00210920FFF744FA7E
:102F5400E7248DF804408DF803408DF802408DF885
:102F640001408DF80040052269460A20FFF74EFA19
:102F7400C2238DF804308DF803308DF802308DF8BB
:102F840001308DF80030052269460B20FFF73EFA28
:102F9400C3210C20FFF720FAC4210D20FFF71CFAEF
:102FA400C5210E20FFF718FAC6210F20FFF714FAE7
:102FB4008DF804408DF803408DF802408DF80140EF
:102FC4008DF80040052269461020FFF71FFA002102
:102FD4001120FFF701FA00211220FFF7FDF900216B
:102FE4001320FFF7F9F900211420FFF7F5F9002168
:102FF4001520FFF7F1F900211620FFF7EDF9FFF78F
:10300400FBFB00211C20FFF7E7F900211D20FFF73F
:10301400E3F9FFF759FC0F210846FFF76DFA032087
:10302400FFF7E6FA0120FFF703FB0220FFF72CFB72
:10303400FFF7BEFA2020FFF773FAFFF79CFB4C2042
:10304400FFF764FAFFF722FAFFF726FAFFF72FFBE0
:1030540002B0BDE8704002B0704700BF20020020FB
:103064001C0200201A0200201802002084B008B5B7
:103074000DF1080C8CE80F0044226146034800F06F
:1030840055F8BDE8084004B0704700BF780200203E
:10309400DFF834D00D480E490E4A002302E0D4581C
:1030A400C4500433C4188C42F9D30B4A0B4C00238C
:1030B40001E013600432A242FBD3FFF71EF900F0D3
:1030C40011F8FDF73FFB704700400120000000208D
:1030D400980000200C3F000898000020D402002033
:1030E400FEE7000070B500260C4D0D4C641BA410C7
:1030F400A64209D100F0AAFC00260A4D0A4C641B22
:10310400A410A64205D170BD55F8043B984701367A
:10311400EEE755F8043B98470136F2E7043F000810
:10312400043F0008043F0008083F00080A44914295
:1031340000F1FF3300D1704710B511F8014B9142F3
:1031440003F8014FF9D110BD884210B501EB020418
:1031540002D98442234607D8431EA14208D011F85D
:10316400012B03F8012FF8E7014602448A4200D1FB
:1031740010BD13F8014D02F8014DF7E70346024470
:10318400934200D1704703F8011BF9E70EB46FF0C6
:10319400004100B59CB01DAB0290069007910491CC
:1031A4000848094953F8042B0591006802A90193C2
:1031B40000F068F80022029B1A701CB05DF804EB62
:1031C40003B07047340000200802FFFF2DE9F047E8
:1031D4008E6882469E420C4690461F4638D88A899D
:1031E40012F4906F32D0256809690133A5EB010907
:1031F40065694B4405EB450505EBD5756D109D429E
:1032040038BF1D46530531D5294600F047FB064615
:1032140050B90C234FF0FF30CAF80030A38943F0B3
:103224004003A381BDE8F0874A462169FFF77EFF8A
:10323400A38923F4906343F08003A38126614E4461
:1032440026603E466561A5EB0905A560BE4200D92E
:103254003E46324641462068FFF776FFA3680020C9
:103264009B1BA360236833442360DBE72A4600F0FA
:1032740089FB06460028E1D15046216900F0A6FAF0
:10328400C7E700002DE9F04F98468B8907461B06D7
:103294000D4614469DB00ED50B6963B9402100F06C
:1032A400FDFA2860286120B90C233B604FF0FF3001
:1032B400D1E040236B610023099320238DF829304A
:1032C40030234FF00109CDF80C80DFF8A4818DF88C
:1032D4002A3023469A4613F8012B0AB1252AF9D13C
:1032E400BAEB040B0BD05B46224629463846FFF75F
:1032F4006DFF013000F0AA80099A5A4409929AF8A5
:103304000030002B00F0A28000234FF0FF32CDE903
:1033140005230AF1010A049307938DF853301A9395
:103324005446052214F8011B514800F041FA049A4E
:10333400D8B9D00644BF20238DF85330110744BFB9
:103344002B238DF853309AF800302A2B15D054468D
:1033540000204FF00A0C079A214611F8013B303B3C
:10336400092B4ED9B0B1079214E0A0EB080309FA77
:1033740003F31343A2460493D2E7039B191D1B686E
:103384000391002BBBBF5B4242F0020207930793F9
:10339400B8BF049223782E2B0CD163782A2B35D115
:1033A400039B02341A1D1B680392002BB8BF4FF015
:1033B400FF330593DFF8BCA003225046217800F0C8
:1033C400F7F940B14023A0EB0A0003FA00F0049B94
:1033D40001340343049314F8011B062226488DF894
:1033E400281000F0E5F9002838D0244B1BBB039BC0
:1033F400073323F0070308330393099B33440993EA
:1034040067E70C4601200CFB0232A5E700234FF0CE
:103414000A0C194601340593204610F8012B303A62
:10342400092A03D9002BC5D00591C3E7044601231B
:103434000CFB0121F0E703AB00932A463846104BFE
:1034440004A9AFF30080421C0646D6D1AB895B06C3
:103454003FF52CAF09981DB0BDE8F08F03AB009386
:103464002A463846064B04A900F07CF8EBE700BF77
:10347400C73E0008CD3E0008D13E00080000000011
:10348400D13100082DE9F047164699468A680B6940
:1034940007469342B8BF1346336091F843200C4665
:1034A400DDF820800AB1013333602368990642BFF6
:1034B400336802333360256815F0060506D104F13C
:1034C400190AE36832689B1AAB4228DC94F843205B
:1034D400131E226818BF012392062DD4494638468C
:1034E40004F14302C047013020D02368E56803F0AB
:1034F4000603042B18BF002532684FF00006A368AA
:1035040008BFAD1A226908BF25EAE5759342C4BF16
:103514009B1AED181A34B5421AD1002008E0012391
:10352400524649463846C047013003D14FF0FF3078
:10353400BDE8F0870135C4E73020E11881F8430085
:103544005A1C94F845102244023382F84310C5E70C
:103554000123224649463846C0470130E6D00136A9
:10356400D9E700002DE9FF470F7E9146782F80466A
:103574000C469A460C9D01F1430207D8622F0AD8E3
:10358400002F00F0D980582F00F0A48004F14205E8
:1035940084F842703AE0A7F16303152BF6D801A131
:1035A40051F823F00136000815360008913500085B
:1035B400913500089135000891350008153600084A
:1035C40091350008913500089135000891350008BF
:1035D40023370008453600080537000891350008F0
:1035E4009135000845370008913500084536000834
:1035F40091350008913500080D3700082B681A1D15
:103604001B682A6004F1420584F842300123A4E0D7
:1036140020682968060601F104030AD50E682B60A8
:10362400002E03DA2D23764284F843300A235E48C1
:1036340019E00E6810F0400F2B6018BF36B2EFE7A8
:103644002B682068191D2960010601D51E6802E057
:103654004606FBD51E886F2F0CBF08230A23524849
:10366400002184F843106568002DA8BF2168A56077
:10367400A4BF21F0040121600EB9002D4DD01546E0
:10368400B6FBF3F103FB1167C75D05F8017D37460F
:10369400BB420E46F4D9082B0BD12368DE0708D5AC
:1036A400236961689942DEBF302305F8013C05F1C6
:1036B400FF35521B22614B4621464046CDF800A0FF
:1036C40003AAFFF7DFFE01304CD14FF0FF3004B006
:1036D400BDE8F087344881F845702968236851F8BB
:1036E400046B29601D0614D5DF0744BF43F0200393
:1036F40023601EB9236823F0200323601023AFE75F
:10370400236843F0200323607823284884F8453055
:10371400E3E7590648BFB6B2E6E71546BBE72B68B0
:103724002668181D6169286035061B6801D5196073
:1037340002E07006FBD51980002315462361BAE721
:103744002B6800211A1D2A601D686268284600F053
:103754002FF808B1401B606063682361002384F87C
:103764004330A8E72A46494640462369D0470130FA
:10377400ABD023689B0713D4E068039B9842B8BF7F
:103784001846A4E70123324649464046D047013053
:103794009BD00135E36803995B1AAB42F2DCEBE79B
:1037A400002504F11906F5E7D83E0008E93E0008B3
:1037B400034610B5C9B202449342184601D1002011
:1037C40003E0047801338C42F6D110BD38B50546C8
:1037D400002940D051F8043C0C1F002BB8BFE4185A
:1037E40000F010F91C4A136833B96360146028466A
:1037F400BDE8384000F00CB9A34208D9206821186C
:103804008B4201BF19685B6809182160EDE71A460D
:103814005B680BB1A342FAD911685018A0420BD1CE
:1038240020680144501883421160E0D118685B6835
:10383400014411605360DAE702D90C232B60D6E708
:10384400206821188B4201BF19685B680918216040
:1038540063605460CBE738BDC002002070B50E4EE3
:103864000C463168054611B900F0BCF830602146B9
:10387400284600F0B7F8431C0AD0C41C24F0030403
:10388400A04207D0211A284600F0ACF8013001D13B
:103894004FF0FF34204670BDC40200202DE9F041F2
:1038A400CD1C25F0030508350C2D38BF0C25002D43
:1038B400074601DBA94205D90C2300263B603046AC
:1038C400BDE8F0812E4E00F09DF833681C4634BBF1
:1038D40029463846FFF7C2FF431C04464DD13468DD
:1038E4002646002E40D123683146384604EB0308AF
:1038F40000F078F880453AD1216803356D1A25F037
:10390400030508350C2D38BF0C2538462946FFF72A
:10391400A5FF01302BD023682B4423600EE02268DE
:10392400521B1ED40B2A16D96119A342256018BF55
:103934005960636808BF316062514B60384604F1D6
:103944000B0600F065F826F00706231DF21AB6D020
:103954009B1BA350B3E76268A3420CBF32605A605A
:10396400ECE723466468B2E734467668B9E70C238B
:1039740038463B6000F04CF8A1E72560DEE700BF65
:10398400C00200202DE9F041804614460E4621B9BC
:103994001146BDE8F041FFF781BF2AB9FFF716FFD2
:1039A40025462846BDE8F08100F038F884420746F1
:1039B40002D8B4EB500F12D821464046FFF76EFFF1
:1039C40005460028EDD0BC422246314628BF3A467F
:1039D400FFF7ACFB31464046FFF7F8FEE1E735461A
:1039E400DFE7000038B50023054D044608462B6088
:1039F40000F01EF8431C02D12B6803B1236038BDCC
:103A0400C8020020014800F011B800BFCC02002019
:103A1400014800F00CB800BFCC02002051F8043C6F
:103A2400181F002BBCBF0B58C01870477047704755
:103A3400044A05491368002B08BF0B46184410605C
:103A440018467047D0020020D8020020F8B500BF05
:103A5400F8BC08BC9E467047F8B500BFF8BC08BC6B
:043A64009E467047C3
:103A68000000000000000000010203040607080926
:103A780000000000010203040D0A2A2A2A2A2A2A21
:103A88002A2A2A2A2A2A2A2A2A2A2A2A2A2A2A2A8E
:103A98002A2A2A2A2A2A2A2A2A2A2A2A2A2A2A2A7E
:103AA8002A2A2A2A2A2A2A2A0D0A00004352433A95
:103AB8000D0A0909456E61626C65642C203220424A
:103AC80079746573200D0A004352433A0D0A0909B7
:103AD800456E61626C65642C2031204279746520E2
:103AE8000D0A00004352433A0D0A090944697361FB
:103AF800626C6564200D0A00454E41413A0D0A0981
:103B08000950303A0925640D0A090950313A092546
:103B1800640D0A090950323A0925640D0A09095049
:103B2800333A0925640D0A090950343A0925640D08
:103B38000A090950353A0925640D0A00454E5F52B5
:103B480058414444523A0D0A090950303A0925644B
:103B58000D0A090950313A0925640D0A090950323C
:103B68003A0925640D0A090950333A0925640D0AF2
:103B7800090950343A0925640D0A090950353A09EA
:103B880025640D0A0000000053455455505F415705
:103B98003A0D0A09092564206279746573200D0AB3
:103BA8000000000052465F43483A0D0A090925649F
:103BB800204348200D0A000044617461205261745A
:103BC800653A0D0A0909324D627073200D0A00002A
:103BD8004461746120526174653A0D0A0909314DD6
:103BE800627073200D0A000052465F5057523A0D1A
:103BF8000A09092D31386442200D0A0052465F50E7
:103C080057523A0D0A09092D31326442200D0A0033
:103C180052465F5057523A0D0A09092D3664422020
:103C28000D0A000052465F5057523A0D0A090930F2
:103C38006442200D0A00000052585F5069706530D8
:103C48002041646472733A0D0A0909253032582CF0
:103C5800253032582C253032582C253032582C2516
:103C680030325820200D0A0052585F506970653173
:103C78002041646472733A0D0A0909253032582CC0
:103C8800253032582C253032582C253032582C25E6
:103C980030325820200D0A0052585F506970653242
:103CA8002041646472733A0D0A090978782C78788F
:103CB8002C78782C78782C2530325820200D0A0062
:103CC80052585F50697065332041646472733A0DCD
:103CD8000A090978782C78782C78782C78782C252B
:103CE80030325820200D0A0052585F5069706534F0
:103CF8002041646472733A0D0A090978782C78783F
:103D08002C78782C78782C2530325820200D0A0011
:103D180052585F50697065352041646472733A0D7A
:103D28000A090978782C78782C78782C78782C25DA
:103D380030325820200D0A005458204164647273B0
:103D48003A0D0A0909253032582C253032582C25CD
:103D58003032582C253032582C2530325820200D3E
:103D68000A00000052585F50575F50303A0D0A0958
:103D7800092564206279746573200D0A000000002B
:103D880052585F50575F50313A0D0A09092564208F
:103D98006279746573200D0A0000000052585F5064
:103DA800575F50323A0D0A09092564206279746513
:103DB80073200D0A0000000052585F50575F5033BF
:103DC8003A0D0A09092564206279746573200D0A81
:103DD8000000000052585F50575F50343A0D0A09EE
:103DE800092564206279746573200D0A00000000BB
:103DF80052585F50575F50353A0D0A09092564201B
:103E08006279746573200D0A0000000044594E5011
:103E1800445F706970653A0D0A090950303A0925FE
:103E2800640D0A090950313A0925640D0A09095037
:103E3800323A0925640D0A090950333A0925640DF7
:103E48000A090950343A0925640D0A090950353A16
:103E58000925640D0A000000454E5F44504C3A0D98
:103E68000A0909456E61626C6564200D0A0000004C
:103E7800454E5F44504C3A0D0A0909446973616222
:103E88006C6564200D0A0000454E5F41434B5F504E
:103E980041593A0D0A0909456E61626C6564200D45
:103EA8000A000000454E5F41434B5F5041593A0DAF
:103EB8000A090944697361626C6564200D0A00236C
:103EC8002D302B2000686C4C00656667454647001E
:103ED8003031323334353637383941424344454638
:103EE80000303132333435363738396162636465CE
:043EF8006600000060
:083EFC0008C3FF7F0100000074
:043F0400A901000807
:043F08008501000827
:103F0C0048656C6C6F20416E682051756F630000C2
:103F1C000000000000000000000000000000000095
:103F2C00AA44332211000000010000001000000020
:103F3C000024F40038000020000000000000000005
:103F4C000000000000000000000000000000000065
:103F5C000000000000000000000000000000000055
:103F6C000000000000000000000000000000000045
:103F7C000000000000000000000000000000000035
:103F8C000000000000000000000000000000000025
:083F9C0000000000000000001D
:04000005080030952A
:00000001FF
