:020000040800F2
:1000000000400120592100088507000887070008E3
:10001000890700088B0700088D0700080000000012
:100020000000000000000000000000008F07000832
:1000300091070008000000009307000895070008DA
:10004000A9210008A9210008A9210008A921000868
:10005000A9210008A9210008A9210008A921000858
:10006000A9210008A9210008A9210008A921000848
:10007000A9210008A9210008A9210008A921000838
:10008000A9210008A9210008A9210008A921000828
:10009000A9210008A9210008A9210008A921000818
:1000A000A9210008A9210008A9210008A921000808
:1000B000A9210008A9210008A9210008A9210008F8
:1000C000A9210008A9210008A9210008A9210008E8
:1000D000A9210008A9210008A9210008A9210008D8
:1000E000A9210008A9210008A9210008A9210008C8
:1000F000A9210008A9210008A9210008A9210008B8
:10010000A9210008A9210008A9210008A9210008A7
:10011000A9210008A9210008A9210008A921000897
:10012000A9210008A9210008A9210008A921000887
:10013000A92100080000000000000000A92100081B
:10014000A9210008A9210008A9210008A921000867
:10015000A9210008A9210008A9210008A921000857
:10016000A9210008A9210008A9210008A921000847
:10017000A9210008A92100080000000000000000DB
:04018000A9210008A9
:1001840010B5054C237833B9044B13B10448AFF3CD
:1001940000800123237010BD0C000020000000002B
:1001A4000422000808B5034B1BB103490348AFF30D
:1001B400008008BD00000000100000200422000898
:1001C40053B94AB9002908BF00281CBF4FF0FF31BA
:1001D4004FF0FF3000F076B9ADF1080C6DE904CEB4
:1001E40000F006F8DDF804E0DDE9022304B070470E
:1001F4002DE9F047089E0D4604468846002B4DD154
:100204008A42944668D9B2FA82F252B101FA02F3F0
:10021400C2F1200120FA01F10CFA02FC41EA0308C0
:1002240094404FEA1C41B8FBF1F71FFA8CFE01FB26
:10023400178807FB0EF0230C43EA084398420AD9B7
:100244001CEB030307F1FF3580F01E81984240F256
:100254001B81023F63441B1AB3FBF1F001FB103313
:1002640000FB0EFEA4B244EA0344A6450AD91CEBE3
:10027400040400F1FF3380F00981A64540F20681B1
:10028400644402380021A4EB0E0440EA07401EB186
:100294000023D440C6E90043BDE8F0878B4208D967
:1002A400002E00F0EE800021C6E900050846BDE8F6
:1002B400F087B3FA83F100294AD1AB4202D38242D8
:1002C40000F2FC80841A65EB030301209846002E9B
:1002D400E2D0C6E90048DFE702B9FFDEB2FA82F2F3
:1002E400002A40F09180A1EB0C0001214FEA1C4749
:1002F4001FFA8CFEB0FBF7F307FB1300250C45EA4D
:1003040000450EFB03F0A84208D91CEB050503F1D8
:10031400FF3802D2A84200F2CE8043462D1AB5FB24
:10032400F7F007FB10550EFB00FEA4B244EA0544A7
:10033400A64508D91CEB040400F1FF3502D2A645FA
:1003440000F2B6802846A4EB0E0440EA03409EE780
:10035400C1F120078B4022FA07FC4CEA030C25FA72
:1003640007FA4FEA1C49BAFBF9F820FA07F309FB2C
:1003740018AA8D401FFA8CFE1D4300FA01F308FBF6
:100384000EF02C0C44EA0A44A04202FA01F20BD902
:100394001CEB040408F1FF3A80F08880A04240F28C
:1003A4008580A8F102086444241AB4FBF9F009FB1F
:1003B400104400FB0EFEADB245EA0444A64508D93C
:1003C4001CEB040400F1FF356CD2A6456AD902384F
:1003D400644440EA0840A0FB0295A4EB0E04AC423E
:1003E400C846AE4656D353D0002E69D0B3EB0802AC
:1003F40064EB0E0422FA01F304FA07F71F43CC401E
:10040400C6E90074002147E70CFA02FCC2F120019E
:1004140025FA01F34FEA1C4720FA01F195400D43F8
:10042400B3FBF7F107FB11331FFA8CFE280C40EAEB
:10043400034001FB0EF3834204FA02F408D91CEBD7
:10044400000001F1FF382FD283422DD902396044D4
:10045400C01AB0FBF7F307FB1300ADB245EA004541
:1004640003FB0EF0A84208D91CEB050503F1FF3885
:1004740016D2A84214D9023B6544281A43EA014122
:1004840038E73146304607E72F46E4E61846F9E6F2
:100494004B45A9D2B9EB020865EB0C0E0138A3E772
:1004A4004346EAE7284694E74146D1E7D0467BE74E
:1004B4006444023847E7023B65442FE7084606E7F1
:1004C4003146E9E6704700BF2DE9F0418AB00024C7
:1004D4000594069407940894099401942F4B1A6B7D
:1004E40042F080021A631A6B02F080020192019AB0
:1004F40002941A6B42F004021A631A6B02F00402AB
:100504000292029A03941A6B42F001021A631A6B64
:1005140002F001020392039A04941A6B42F002025D
:100524001A631B6B03F002030493049BDFF87080CF
:10053400224640F2FF31404601F0B2F8194F2246FC
:1005440042F22131384601F0ABF8174E22464FF4FF
:100554000F41304601F0A4F840F2FF330593012522
:1005640006950794089405A9404600F095FF42F2C9
:100574002133059306950794089405A9384600F09D
:100584008BFF4FF40F43059306950794089405A930
:10059400304600F081FF0AB0BDE8F0810038024027
:1005A40000080240000402400000024072B6FEE768
:1005B40000B585B00023009301930293039313487D
:1005C400134A0260436083600361037680F820303D
:1005D400C362104A8262C3600122C26180F8303073
:1005E400426100F071FA60B9012300930193002382
:1005F40002936946054800F093FA20B905B05DF806
:1006040004FBFFF7D3FFFFF7D1FF00BF2800002052
:10061400002001400100000F08B50A480A4B03609E
:100624000A4B436000238360C3604FF4804202613D
:1006340043618361C361036201F0AEF900B908BD8F
:10064400FFF7B4FF7000002000540040A0860100B2
:1006540008B50D480D4B03604FF4827343600023CB
:100664008360C360036143614FF400728261C361BC
:100674000362436283620A23C36201F01DFB00B973
:1006840008BDFFF793FF00BFC4000020003C0040FA
:1006940008B50A480A4B03604FF4E1334360002372
:1006A4008360C36003610C2242618361C36101F012
:1006B400D5FB00B908BDFFF779FF00BF1C0100207E
:1006C4000048004000B593B03022002106A801F094
:1006D4008FFD002301930293039304930593012355
:1006E4000693079302230C934FF480020D92082281
:1006F4000E92F0220F9210930423119306A800F097
:1007040043FB98B90F23019302230293002303931D
:100714004FF4A05304934FF480530593032101A88D
:1007240000F074FD20B913B05DF804FBFFF73EFF41
:10073400FFF73CFF08B500F0E5FAFFF7C3FFFFF74A
:10074400C3FEFFF735FFFFF767FFFFF781FFFFF7F2
:100754009FFF01F09BFC01230A222821084601F097
:1007640025FC01F0E5FB4FF40051044800F09EFF26
:100774004FF47A7000F0F2FAF5E700BF000402408B
:10078400FEE7FEE7FEE7FEE7FEE7704770477047C7
:1007940008B500F0D1FA08BD82B0002100910B4BDE
:1007A4005A6C42F480425A645A6C02F480420092B9
:1007B400009A01911A6C42F080521A641B6C03F087
:1007C40080530193019B02B0704700BF0038024080
:1007D40000B589B00023039304930593069307930C
:1007E400026803F1804303F590339A4202D009B0C2
:1007F4005DF804FB0021019103F58C335A6C42F43B
:1008040080725A645A6C02F480720192019A0291C5
:100814001A6B42F001021A631B6B03F0010302938B
:10082400029BFE2303930323049303A9014800F0CE
:1008340033FEDCE70000024030B589B000230393A7
:1008440004930593069307930268144B9A4201D0CC
:1008540009B030BD00250195114C236B43F0020310
:100864002363236B03F002030193019BC0230393CF
:1008740012230493032306930423079303A909482B
:1008840000F00AFE0295236C43F400132364236CE6
:1008940003F400130293029BDAE700BF0054004004
:1008A400003802400004024000B589B000230393DD
:1008B40004930593069307930268154B9A4202D05A
:1008C40009B05DF804FB0021019103F5FE331A6CB5
:1008D40042F400421A641A6C02F400420192019A32
:1008E40002911A6B42F004021A631B6B03F00403B7
:1008F4000293029B4FF4E0530393022304930323D4
:1009040006930623079303A9024800F0C5FDD7E721
:10091400003C00400008024000B589B00023039366
:1009240004930593069307930268154B9A4202D0E9
:1009340009B05DF804FB0021019103F5F8331A6C4A
:1009440042F480221A641A6C02F480220192019A01
:1009540002911A6B42F002021A631B6B03F002034A
:100964000293029B4FF440630393022304930323F3
:1009740006930723079303A9024800F08DFDD7E7E8
:1009840000480040000402404D4B5A6822F44032B3
:100994005A605A6841680A435A600268536823F4EB
:1009A4008073536002685368016943EA012353600A
:1009B4000268536823F04073536002685368816887
:1009C4000B4353600268936823F4006393600268E6
:1009D4009368C1680B439360826A3A4B9A425DD034
:1009E4000268936823F07063936002689368816A75
:1009F4000B4393600268936823F04053936002684A
:100A04009368C16A0B4393600268936823F00203FE
:100A1400936002689368017E43EA4103936090F80F
:100A24002030002B45D00268536843F400635360C0
:100A34000268536823F460435360436A013B4FF4F4
:100A4400604292FAA2F2B2FA82F2934001684A68D2
:100A540013434B600268D36A23F47003D3620168C2
:100A6400CB6AC269013A43EA0253CB6202689368D3
:100A740023F4007393600268936890F8301043EA9B
:100A8400412393600268936823F48063936002684F
:100A94009368416943EA81239360704702689368CD
:100AA40023F0706393600268936823F0405393606B
:100AB400AAE70268536823F400635360CAE700BFDF
:100AC400002301400100000F38B310B50446036C45
:100AD40043B1236C13F0100F0BD00120002384F8D2
:100AE4003C3010BDFFF774FE0023636484F83C308F
:100AF400EFE7236C23F4885323F0020343F002034B
:100B040023642046FFF740FF00206064236C23F039
:100B1400030343F001032364E0E70120704700006E
:100B240030B482B00023019390F83C30012B00F0E4
:100B3400BB80012380F83C300B68092B41D9046841
:100B4400E2689BB203EB43031E3B4FF0070C0CFA25
:100B540003F322EA0303E3600468E2680B8803EB0F
:100B640043031E3B8D6805FA03F31343E3604B68AC
:100B7400062B3DD80468626B03EB8303053B4FF0FF
:100B84001F0C0CFA03F322EA030363630468626B29
:100B94004B6803EB8303053BB1F800C00CFA03F385
:100BA400134363630268414B9A4251D002683F4B3E
:100BB4009A4256D0002380F83C30184602B030BC2C
:100BC4007047046822699BB203EB43034FF0070CA0
:100BD4000CFA03F322EA03032361046822690B88F5
:100BE40003EB43038D6805FA03F313432361BEE764
:100BF4000C2B16D805682A6B03EB8303233B1F24B5
:100C040004FA03F322EA03032B6305682A6B4B6897
:100C140003EB8303233B0C8804FA03F313432B6392
:100C2400C0E70568EA6A03EB8303413B1F2404FA27
:100C340003F322EA0303EB620568EA6A4B6803EBF9
:100C44008303413B0C8804FA03F31343EB62A9E7E3
:100C54000B68122BAAD1164A536843F480035360DD
:100C6400A4E70B68103B012BA4D8114A536843F442
:100C7400000353600B68102B9CD10E4B1B6802F1D0
:100C8400467202F52E3202F28332A2FB03239B0C3E
:100C940003EB83035B00019302E0019B013B01939F
:100CA400019B002BF9D185E7022087E70020014052
:100CB400002301400800002010B504460E4B1878AC
:100CC4004FF47A73B3FBF0F30C4A1068B0FBF3F003
:100CD40000F0CEFB68B90F2C01D901200AE00022F4
:100CE40021464FF0FF3000F08BFB054B1C600020C9
:100CF40000E0012010BD00BF00000020080000201B
:100D04000400002008B50B4B1A6842F400721A6004
:100D14001A6842F480621A601A6842F480721A6097
:100D2400032000F05BFB0F20FFF7C6FFFFF734FD45
:100D3400002008BD003C0240034A1168034B1B78A5
:100D44000B441360704700BF6001002000000020C6
:100D5400014B1868704700BF6001002030B583B0B4
:100D64000190FFF7F5FF0546019CB4F1FF3F02D067
:100D7400044B1B781C44FFF7EBFF401BA042FAD343
:100D840003B030BD00000020002800F0BB8170B526
:100D940082B00446036813F0010F2ED0934B9B6876
:100DA40003F00C03042B1FD0904B9B6803F00C033F
:100DB400082B14D022798D4B9A706368002B40D095
:100DC400FFF7C6FF0546894B1B6813F4003F14D197
:100DD400FFF7BEFF401B6428F5D9032099E1834B3C
:100DE4005B6813F4800FE5D0804B1B6813F4003F5D
:100DF40003D06368002B00F08781236813F0020F8F
:100E04004AD07A4B9B6813F00C0F2ED0774B9B681B
:100E140003F00C03082B23D0E368002B64D0744B3D
:100E240001221A60FFF794FF0546704B1B6813F00C
:100E3400020F4AD1FFF78CFF401B0228F5D903208B
:100E440067E1FFF785FF0546684B1B6813F4003F15
:100E5400D3D0FFF77DFF401B6428F5D9032058E168
:100E6400624B5B6813F4800FD6D1604B1B6813F0A0
:100E7400020F03D0E368012B40F048815B4803680C
:100E840023F0F8032169F82292FAA2F2B2FA82F26C
:100E940001FA02F213430360236813F0080F48D0E9
:100EA40063699BB3524B0122C3F8802EFFF750FFB6
:100EB40005464E4B5B6F13F0020F3AD1FFF748FF24
:100EC400401B0228F5D9032023E14848036823F096
:100ED400F8032169F82292FAA2F2B2FA82F201FA34
:100EE40002F213430360D7E7414B00221A60FFF775
:100EF4002FFF05463D4B1B6813F0020FCCD0FFF7C4
:100F040027FF401B0228F5D9032002E1384B0022B9
:100F1400C3F8802EFFF71CFF0546344B5B6F13F0BC
:100F2400020F06D0FFF714FF401B0228F5D9032057
:100F3400EFE0236813F0040F5FD02C4B1B6C13F00D
:100F4400805F2CD100230193284B1A6C42F080520D
:100F54001A641B6C03F080530193019B0125254BFC
:100F64001A6842F480721A601B6813F4807F18D0E8
:100F7400227A1E4B83F87020A36833B3FFF7E8FE90
:100F840006461A4B1B6F13F0020F35D1FFF7E0FE34
:100F9400801B41F288339842F3D90320B9E000253D
:100FA400DDE7144A136843F480731360FFF7D0FE3F
:100FB4000646104B1B6813F4807FD9D1FFF7C8FE97
:100FC400801B0228F5D90320A3E0FFF7C1FE0646E3
:100FD400064B1B6F13F0020F0ED0FFF7B9FE801BF8
:100FE40041F288339842F3D9032092E0003802405A
:100FF4000000474200700040EDB9A369002B00F0E7
:1010040087804B4A926802F00C02082A5BD0022BBC
:1010140017D0484B00221A66FFF79AFE0446444B49
:101024001B6813F0007F4CD0FFF792FE001B64286E
:10103400F5D903206DE03E4A136C23F0805313640A
:10104400DBE73C4B00221A66FFF782FE0546384B6D
:101054001B6813F0007F06D0FFF77AFE401B64285C
:10106400F5D9032055E03248426822F0746222F434
:101074005F3222F47F7222F00302E369216A0B4398
:10108400616A43EA8113E16A43EA0163A16A490898
:10109400013943EA014313434360264B01221A6694
:1010A400FFF756FE0446224B1B6813F0007F06D15F
:1010B400FFF74EFE001B6428F5D9032029E0002029
:1010C40027E0002025E0012B25D0194B5B6803F4B1
:1010D4008001E269914220D103F03F02216A8A42F1
:1010E4001DD1C3F38812616A8A421AD103F44032D3
:1010F400A16A8A4217D103F07063E26A934214D161
:10110400002006E001207047012002E0012000E0F9
:10111400002002B070BD0120FBE70120F9E70120A7
:10112400F7E70120F5E70120F3E70120F1E700BF2D
:10113400003802400000474208B5314B9B6803F079
:101144000C03042B57D0082B57D12D4B5A6802F0AF
:101154003F025B6813F4800F2AD0294B5968C1F30E
:10116400881C4FEA4C11B1EB0C006EEB0E0E4FEAEB
:101174008E1343EA90638101091A63EB0E03DB00CB
:1011840043EA5173C90011EB0C0C43F100035902FB
:1011940000234FEA4C2041EADC51FFF711F8184BC9
:1011A4005B68C3F3014301335B00B0FBF3F025E05C
:1011B400134B5968C1F3881C4FEA4C11B1EB0C0076
:1011C4006EEB0E0E4FEA8E1343EA90638101091A07
:1011D40063EB0E03DB0043EA5173C90011EB0C0C03
:1011E40043F10003990200234FEA8C2041EA9C5109
:1011F400FEF7E6FFD3E7034800E0034808BD00BF5D
:101204000038024000127A000024F400002800F0A4
:10121400A08070B50D460446524B1B6803F00F03C3
:101224008B4208D2CBB24F4A1370136803F00F03FA
:101234008B4240F09080236813F0020F17D013F014
:10124400040F04D0484A936843F4E053936023683E
:1012540013F0080F04D0444A936843F46043936046
:10126400414A936823F0F003A1680B439360236819
:1012740013F0010F31D06368012B20D0022B25D04D
:10128400394A126812F0020F67D037498A6822F08F
:10129400030213438B60FFF75BFD0646324B9B68EA
:1012A40003F00C036268B3EB820F16D0FFF750FD16
:1012B400801B41F288339842F0D9032048E02A4A3F
:1012C400126812F4003FE0D1012041E0264A12687E
:1012D40012F0007FD9D101203AE0224B1B6803F0C1
:1012E4000F03AB4207D9EAB21E4B1A701B6803F016
:1012F4000F03AB4233D1236813F0040F06D01A4A0C
:10130400936823F4E053E1680B439360236813F07C
:10131400080F07D0144A936823F46043216943EA11
:10132400C1039360FFF708FF0F4B9B6803F0F003C2
:10133400F02292FAA2F2B2FA82F2D3400B4AD35CC0
:10134400D8400B4B18600B4B1868FFF7B5FC002016
:1013540070BD012070470120FAE70120F8E7012061
:10136400F6E700BF003C0240003802401C2200089F
:101374000800002004000020014B1868704700BFDB
:101384000800002008B5FFF7F7FF074B9B6803F43C
:10139400E0534FF4E05292FAA2F2B2FA82F2D3404E
:1013A400024AD35CD84008BD003802402C22000811
:1013B40008B5FFF7E1FF074B9B6803F460434FF464
:1013C400604292FAA2F2B2FA82F2D340024AD35CA9
:1013D400D84008BD003802402C220008074AD368D0
:1013E40023F4E0631B041B0C000200F4E0600343DD
:1013F40043F0BF6343F40033D360704700ED00E073
:1014040000B5194BDB68C3F30223C3F1070CBCF12D
:10141400040F28BF4FF0040C03F1040EBEF1060FB5
:1014240018D9033B4FF0FF3E0EFA0CFC21EA0C01E5
:1014340099400EFA03F322EA0303194300280BDB55
:101444000901C9B200F1604000F5614080F8001361
:101454005DF804FB0023E5E700F00F000901C9B2C1
:10146400024B1954F4E700BF00ED00E014ED00E076
:101474000138B0F1807F0BD24FF0E0235861054A68
:10148400F02182F823100020986107221A61704726
:101494000120704700ED00E070B582B0002365E0E4
:1014A40085685E000324B44025EA0405CC68B44092
:1014B4002C438460446824EA0C0C4C68C4F3001484
:1014C4009C4044EA0C04446062E0DD08083550F8AE
:1014D400256003F007044FEA840C0F2404FA0CF48B
:1014E40026EA040E0C6904FA0CF444EA0E0440F8EB
:1014F400254064E0082400E0002404FA0EF42C43A0
:101504000CF1020C624D45F82C40624C2568D44322
:1015140025EA0206D1F804C01CF4803F01D042EA57
:1015240005065C4D2E606D6804EA0506D1F804C01A
:101534001CF4003F01D042EA0506564D6E60AD68CA
:1015440004EA0506D1F804C01CF4801F01D042EA65
:101554000506504DAE60ED682C404E6816F4001F31
:1015640001D042EA05044B4AD46001330A6832FAD6
:1015740003F400F08A804FF0010C0CFA03FC1CEA1F
:101584000202F2D04C6804F00304013C012C87D918
:101594004C6804F00304032C0CD0C4685D004FF0C5
:1015A400030C0CFA05FC24EA0C0C8C68AC4044EAED
:1015B4000C04C4604C6804F00304022C85D0046855
:1015C4004FEA430E4FF0030C0CFA0EFC24EA0C0C09
:1015D4004C6804F0030404FA0EF444EA0C040460B6
:1015E4004C6814F4403FC0D0002401942A4C656C2C
:1015F40045F480456564646C04F480440194019C62
:101604004FEA930C0CF10205214C54F8255003F0D9
:1016140003044FEA840E0F2404FA0EF425EA0405A9
:101624001E4CA0423FF468AF04F58064A0421ED073
:1016340004F58064A0421CD004F58064A0421AD052
:1016440004F58064A04218D004F58064A04216D04A
:1016540004F58064A04214D004F58064A04212D042
:1016640004F58064A0423FF445AF092445E7012412
:1016740043E7022441E703243FE704243DE705242C
:101684003BE7062439E7072437E702B070BD00BF03
:1016940000380140003C0140003802400000024094
:1016A4000AB181617047090481617047436901EAA5
:1016B400030221EA030141EA0241816170470368A0
:1016C4005A6912F4806F01D1002070476FF4806270
:1016D4005A6100230363202280F83D2080F83E30C5
:1016E400026C42F00402026480F83C30012070472E
:1016F4002DE9F04107460D4690461E4624E0FFF7CB
:1017040027FB069BC01AB04200D8EEB900233B6306
:10171400202287F83D2087F83E303A6C42F02002C0
:101724003A6487F83C3001201EE03B689C6925EA56
:10173400040C1FFA8CFCBCFA8CFC4FEA5C1CE045E0
:1017440011D1B6F1FF3FDAD1C5F30743012BECD138
:101754003B685B6925EA030C1FFA8CFCBCFA8CFC21
:101764004FEA5C1CEBE70020BDE8F0812DE9F04175
:1017740005460E46174698463DE01A6842F4007244
:101784001A602B686FF480625A6100232B63202255
:1017940085F83D2085F83E302A6C42F004022A6424
:1017A40085F83C30012034E0FFF7D2FAA0EB0800C2
:1017B400B84200D8FFB900232B63202285F83D20CE
:1017C40085F83E302A6C42F020022A6485F83C30C9
:1017D40001201EE02B689C6926EA0404A4B2003CA4
:1017E40018BF0124A4B12B685A6912F4806FC4D1C4
:1017F400B7F1FF3FD8D1C6F30743012BEAD12B68D9
:101804005C6926EA0404A4B2003C18BF0124E9E799
:101814000020BDE8F08170B504460D4616462368E5
:101824005B6913F0800F1CD12046FFF748FFD0B945
:10183400B5F1FF3FF3D0FFF78BFA801BA84201D824
:10184400002DECD100232363202284F83D2084F86A
:101854003E30226C42F02002226484F83C300120A5
:1018640000E0002070BD0120FCE700002DE9F043FA
:1018740085B004460D4691461F46DDF830800D9E26
:101884000368196841F48071196000964346002288
:101894004FF00111FFF72CFF60B9236805F0FE0536
:1018A4001D613346424626492046FFF75FFF68B173
:1018B400012008E023681B6813F4807F02D04FF4F2
:1018C40000732364032005B0BDE8F0830023039371
:1018D40023685A6903929B690393039B32464146EA
:1018E4002046FFF798FF30B9012F0FD123685FFA24
:1018F40089F61E61E7E7236C042B01D00120E2E79F
:101904002268136843F400731360F7E723684FEA0F
:1019140019221A61324641462046FFF77CFF20B95E
:1019240023685FFA89F61E61CDE7236C042B01D08E
:101934000120C8E72268136843F400731360F7E7D3
:101944000200010070B504460D46164623685B6923
:1019540013F0040F1CD12046FFF7B1FED0B9B5F146
:10196400FF3FF3D0FFF7F4F9801BA84201D8002D04
:10197400ECD100232363202284F83D2084F83E30F8
:10198400226C42F02002226484F83C30012000E002
:10199400002070BD0120FCE7002800F0CC8070B569
:1019A400044690F83D30002B77D0242384F83D3052
:1019B4002268136823F0010313602268136843F458
:1019C400004313602268136823F400431360FFF795
:1019D400D9FC62685A4B9A4264D85A4B98428CBFDD
:1019E40000230123002B40F0A8805749A1FB0031BC
:1019F4008B0C25686A6822F03F0242EA91426A60D1
:101A040021680A6A22F03F0266684D4DAE424FD803
:101A1400013313430B622168CA6922F44F4222F056
:101A2400FF026668464B9E424CD8431E7600B3FBC9
:101A3400F6F3013340F6FC70034278D0C3F30B0392
:101A44001343CB6121680B6823F0C003E269206A69
:101A5400024313430B6021688B6823F4034323F090
:101A6400FF032269E068024313438B602168CB685B
:101A740023F0FF036269A06902431343CB60226829
:101A8400136843F00103136000202064202384F8CA
:101A94003D30206384F83E0070BD80F83C30FEF792
:101AA400CBFE82E7294B98428CBF0023012399E7A0
:101AB4004FF4967505FB03F3254DA5FB03539B09D2
:101AC4000133A6E7A368BBB9451E06EB460CB5FB7C
:101AD400FCF50135C5F30B05B5FA85F56D0945BB74
:101AE400C3B9013806EB4603B0FBF3F30133C3F388
:101AF4000B0343F40043A3E7451E06EB860C0CEBF3
:101B04008C0CB5FBFCF50135C5F30B05B5FA85F571
:101B14006D09E4E7013806EB860303EB8303B0FBAE
:101B2400F3F30133C3F30B0343F4404388E7042383
:101B340086E7012384E7012070470120ACE700BF5A
:101B4400A08601007F841E0083DE1B43FF083D0046
:101B5400D34D62102DE9F04383B004460F469046FE
:101B640099460C9EFFF7F4F8054694F83D00C0B280
:101B7400202803D0022003B0BDE8F0830095192388
:101B840001224B492046FFF7B3FD002840F089802D
:101B940094F83C30012B00F08680012384F83C301B
:101BA40023681A6812F0010F03D11A6842F0010287
:101BB4001A602268136823F400631360212384F8F5
:101BC4003D30402384F83E30002323640A9B636243
:101BD400BDF82C306385638D2385364BE362019514
:101BE40000964B46424639462046FFF73FFE002802
:101BF4005BD1238D002B35D02A4631462046FFF792
:101C04000AFE20BB626A236812781A61626A531C56
:101C14006362218D013989B22185638D9BB2013BB9
:101C24009BB263852368586910F0040FE1D0002942
:101C3400DFD052781A61636A01336362238D013BFA
:101C44002385638D9BB2013B9BB26385D1E7236CF3
:101C5400042B01D001208EE72268136843F400733B
:101C64001360F7E72A4631462046FFF76BFE50B172
:101C7400236C042B01D001207DE72268136843F410
:101C840000731360F7E72268136843F4007313606A
:101C9400202384F83D30002384F83E3084F83C301F
:101CA40069E7022067E7022065E7012063E700BFD8
:101CB400020010000000FFFF00285AD010B50446AF
:101CC400436A33B94368B3F5827F05D00023C36107
:101CD40002E00023036143610023A36294F85130BE
:101CE400002B40D0022384F851302268136823F07B
:101CF40040031360636803F48273A26802F404422D
:101D04001343E26802F400621343226902F0020200
:101D14001343626902F001021343A26902F40072E0
:101D24001343E26902F038021343226A02F080028C
:101D34001343A26A02F40052216813430B60638BBD
:101D440003F00403626A02F01002216813434B603B
:101D54002268D36923F40063D36100206065012302
:101D640084F8513010BD84F850302046FEF79CFDB5
:101D7400B8E701207047000038B5044602681369CB
:101D840023F44053C1680B4313618368026913430E
:101D940042691343C2691A430168CB6823F41643AA
:101DA40023F00C031343CB600268536923F440739C
:101DB40081690B4353610368264A934206D002F5B6
:101DC4008062934202D0FFF7DDFA01E0FFF7F0FAF8
:101DD400E369B3F5004F1DD000EB800202EB8202F1
:101DE40060688000B2FBF0F21B48A0FB0231490995
:101DF400642303FB11231B013233A0FB03235B0980
:101E040003F0F00202EB011203F00F032168134404
:101E14008B6038BD00EB800000EB800063685B00E2
:101E2400B0FBF3F00C4DA5FB00325109642303FB16
:101E34001103DB003233A5FB03235B095A0002F4D0
:101E4400F87202EB011203F00703216813448B605C
:101E5400DFE700BF001001401F85EB5158B310B5F8
:101E6400044690F83D300BB3242384F83D302268B7
:101E7400D36823F40053D3602046FFF77DFF226824
:101E8400136923F4904313612268536923F02A03EE
:101E940053612268D36843F40053D3600020206464
:101EA400202384F83D3084F83E3010BD80F83C3067
:101EB400FEF732FDD8E701207047704700B587B0C0
:101EC4008DF817004FF0FF330293012301930DF1B6
:101ED40017020092002278210248FFF73BFE07B068
:101EE4005DF804FB7000002000B585B04FF0FF33AF
:101EF400029389B201910090012340227821034882
:101F0400FFF728FE05B05DF804FB00BF7000002059
:101F1400002303E0FF21054AD1540133B3F5806F58
:101F240003D20028F6D10146F5E770476C01002082
:101F340010B5002412E0A4F15000C0B2FFF7BEFFB8
:101F44000020FFF7BBFF1020FFF7B8FF80210548F2
:101F540000EBC410FFF7C8FF0134E4B2072CEAD940
:101F640010BD00BF6C01002010F0800F0FD13F297D
:101F74000DD8012A0CD0CB0800EBC31001F00701E7
:101F840001238B40084A115C21EA03011154704774
:101F9400CB0800EBC31001F0070101238B40024A78
:101FA400115C1943115470476C0100202DE9F04F66
:101FB40083B00090019110F0800F4AD19A465742A5
:101FC400C2F1010254003F2943D84FF0000B08E04E
:101FD4002346A7423BDA01377C0001341C44002F1E
:101FE40037DCFEB2009BA3EB06085FFA88F85FFAC1
:101FF4008BF5019905EB01095FFA89F952464946C7
:102004004046FFF7B1FF009A1644F6B252464946DD
:102014003046FFF7A9FF019B5D1BEDB252462946EE
:102024003046FFF7A1FF524629464046FFF79CFF82
:10203400A345CDDB0BF1010B4FEA4B0301332344E2
:102044001BEB070FC5D1A742C3DB0024C1E71C4625
:10205400C5E703B0BDE8F08F10B504468120FFF753
:102064002DFF2046FFF72AFF10BD000008B530B150
:10207400054B01225A71AF20FFF720FF08BD024B28
:1020840000225A71AE20F7E76401002008B56420ED
:10209400FEF764FE0020FFF7E9FF2020FFF70EFFA4
:1020A4000020FFF70BFFB020FFF708FFC820FFF761
:1020B40005FF0020FFF702FF1020FFF7FFFE40207E
:1020C400FFF7FCFEFF20FFF7C7FFA120FFF7F6FE96
:1020D400A620FFF7F3FEA820FFF7F0FE3F20FFF74E
:1020E400EDFEA420FFF7EAFED320FFF7E7FE002071
:1020F400FFF7E4FED520FFF7E1FEF020FFF7DEFE58
:10210400D920FFF7DBFE2220FFF7D8FEDA20FFF705
:10211400D5FE1220FFF7D2FEDB20FFF7CFFE2020F2
:10212400FFF7CCFE8D20FFF7C9FE1420FFF7C6FE93
:102134000120FFF79BFF0020FFF7EAFEFFF7F8FE00
:10214400034B00221A805A8001221A7108BD00BF75
:1021540064010020DFF834D00D480E490E4A0023F4
:1021640002E0D458C4500433C4188C42F9D30B4A47
:102174000B4C002301E013600432A242FBD3FFF7AF
:102184009CFE00F011F8FEF7D5FA704700400120DC
:10219400000000200C000020442200080C00002055
:1021A4006C050020FEE7000070B500260C4D0D4CB8
:1021B400641BA410A64209D100F022F800260A4D9F
:1021C4000A4C641BA410A64205D170BD55F8043B0B
:1021D40098470136EEE755F8043B98470136F2E795
:1021E4003C2200083C2200083C220008402200084F
:1021F40003460244934200D1704703F8011BF9E7F8
:10220400F8B500BFF8BC08BC9E467047F8B500BFDF
:08221400F8BC08BC9E467047AF
:10221C00000000000000000001020304060708098A
:08222C000000000001020304A0
:08223400C0DFFF7F0100000084
:04223C00A9010008EC
:04224000850100080C
:0C22440001000000100000000024F40065
:040000050800215975
:00000001FF
